{
  "address": "0xf5F507D2a48B62082e3440B185f9e10a47156554",
  "abi": [
    {
      "anonymous": false,
      "inputs": [
        {
          "indexed": true,
          "internalType": "address",
          "name": "previousOwner",
          "type": "address"
        },
        {
          "indexed": true,
          "internalType": "address",
          "name": "newOwner",
          "type": "address"
        }
      ],
      "name": "OwnershipTransferred",
      "type": "event"
    },
    {
      "anonymous": false,
      "inputs": [
        {
          "indexed": true,
          "internalType": "string",
          "name": "code",
          "type": "string"
        },
        {
          "indexed": true,
          "internalType": "address",
          "name": "referrer",
          "type": "address"
        }
      ],
      "name": "ReferralCodeAdded",
      "type": "event"
    },
    {
      "anonymous": false,
      "inputs": [
        {
          "indexed": true,
          "internalType": "address",
          "name": "",
          "type": "address"
        }
      ],
      "name": "WithdrawalDispersed",
      "type": "event"
    },
    {
      "inputs": [
        {
          "internalType": "uint256",
          "name": "numReferrals",
          "type": "uint256"
        }
      ],
      "name": "_rewardPct",
      "outputs": [
        {
          "internalType": "uint256",
          "name": "",
          "type": "uint256"
        }
      ],
      "stateMutability": "pure",
      "type": "function"
    },
    {
      "inputs": [
        {
          "internalType": "address",
          "name": "controller",
          "type": "address"
        }
      ],
      "name": "addController",
      "outputs": [],
      "stateMutability": "nonpayable",
      "type": "function"
    },
    {
      "inputs": [],
      "name": "balance",
      "outputs": [
        {
          "internalType": "uint256",
          "name": "",
          "type": "uint256"
        }
      ],
      "stateMutability": "view",
      "type": "function"
    },
    {
      "inputs": [
        {
          "internalType": "bytes32",
          "name": "",
          "type": "bytes32"
        }
      ],
      "name": "commitments",
      "outputs": [
        {
          "internalType": "uint256",
          "name": "",
          "type": "uint256"
        }
      ],
      "stateMutability": "view",
      "type": "function"
    },
    {
      "inputs": [
        {
          "internalType": "address",
          "name": "",
          "type": "address"
        }
      ],
      "name": "controllers",
      "outputs": [
        {
          "internalType": "bool",
          "name": "",
          "type": "bool"
        }
      ],
      "stateMutability": "view",
      "type": "function"
    },
    {
      "inputs": [
        {
          "internalType": "address[]",
          "name": "tokenAddresses",
          "type": "address[]"
        }
      ],
      "name": "createSnapshot",
      "outputs": [],
      "stateMutability": "nonpayable",
      "type": "function"
    },
    {
      "inputs": [
        {
          "internalType": "bytes32",
          "name": "",
          "type": "bytes32"
        }
      ],
      "name": "expirydates",
      "outputs": [
        {
          "internalType": "uint256",
          "name": "",
          "type": "uint256"
        }
      ],
      "stateMutability": "view",
      "type": "function"
    },
    {
      "inputs": [],
      "name": "getCodes",
      "outputs": [
        {
          "internalType": "uint256",
          "name": "",
          "type": "uint256"
        }
      ],
      "stateMutability": "view",
      "type": "function"
    },
    {
      "inputs": [],
      "name": "getSnapshotEarnings",
      "outputs": [
        {
          "internalType": "uint256",
          "name": "",
          "type": "uint256"
        }
      ],
      "stateMutability": "view",
      "type": "function"
    },
    {
      "inputs": [],
      "name": "getUntracked",
      "outputs": [
        {
          "internalType": "uint256",
          "name": "",
          "type": "uint256"
        }
      ],
      "stateMutability": "view",
      "type": "function"
    },
    {
      "inputs": [
        {
          "internalType": "address",
          "name": "",
          "type": "address"
        }
      ],
      "name": "nativeEarnings",
      "outputs": [
        {
          "internalType": "uint256",
          "name": "",
          "type": "uint256"
        }
      ],
      "stateMutability": "view",
      "type": "function"
    },
    {
      "inputs": [],
      "name": "owner",
      "outputs": [
        {
          "internalType": "address",
          "name": "",
          "type": "address"
        }
      ],
      "stateMutability": "view",
      "type": "function"
    },
    {
      "inputs": [
        {
          "internalType": "uint256",
          "name": "",
          "type": "uint256"
        }
      ],
      "name": "referralCodes",
      "outputs": [
        {
          "internalType": "bytes32",
          "name": "",
          "type": "bytes32"
        }
      ],
      "stateMutability": "view",
      "type": "function"
    },
    {
      "inputs": [
        {
          "internalType": "address",
          "name": "",
          "type": "address"
        },
        {
          "internalType": "uint256",
          "name": "",
          "type": "uint256"
        }
      ],
      "name": "referrals",
      "outputs": [
        {
          "internalType": "bytes32",
          "name": "",
          "type": "bytes32"
        }
      ],
      "stateMutability": "view",
      "type": "function"
    },
    {
      "inputs": [
        {
          "internalType": "bytes32",
          "name": "",
          "type": "bytes32"
        }
      ],
      "name": "referredBy",
      "outputs": [
        {
          "internalType": "string",
          "name": "",
          "type": "string"
        }
      ],
      "stateMutability": "view",
      "type": "function"
    },
    {
      "inputs": [
        {
          "internalType": "bytes32",
          "name": "",
          "type": "bytes32"
        }
      ],
      "name": "referrees",
      "outputs": [
        {
          "internalType": "address",
          "name": "",
          "type": "address"
        }
      ],
      "stateMutability": "view",
      "type": "function"
    },
    {
      "inputs": [],
      "name": "renounceOwnership",
      "outputs": [],
      "stateMutability": "nonpayable",
      "type": "function"
    },
    {
      "inputs": [
        {
          "internalType": "bytes32",
          "name": "code",
          "type": "bytes32"
        },
        {
          "internalType": "address",
          "name": "who",
          "type": "address"
        },
        {
          "internalType": "uint256",
          "name": "duration",
          "type": "uint256"
        }
      ],
      "name": "setReferree",
      "outputs": [],
      "stateMutability": "nonpayable",
      "type": "function"
    },
    {
      "inputs": [
        {
          "internalType": "uint256",
          "name": "amount",
          "type": "uint256"
        },
        {
          "internalType": "address",
          "name": "receiver",
          "type": "address"
        },
        {
          "internalType": "string",
          "name": "referree",
          "type": "string"
        }
      ],
      "name": "settlement",
      "outputs": [],
      "stateMutability": "payable",
      "type": "function"
    },
    {
      "inputs": [
        {
          "internalType": "uint256",
          "name": "amount",
          "type": "uint256"
        },
        {
          "internalType": "address",
          "name": "receiver",
          "type": "address"
        },
        {
          "internalType": "string",
          "name": "referree",
          "type": "string"
        }
      ],
      "name": "settlementCard",
      "outputs": [],
      "stateMutability": "nonpayable",
      "type": "function"
    },
    {
      "inputs": [
        {
          "internalType": "string",
          "name": "referree",
          "type": "string"
        },
        {
          "internalType": "string",
          "name": "name",
          "type": "string"
        },
        {
          "internalType": "address",
          "name": "owner",
          "type": "address"
        },
        {
          "internalType": "uint256",
          "name": "amount",
          "type": "uint256"
        },
        {
          "internalType": "address",
          "name": "receiver",
          "type": "address"
        }
      ],
      "name": "settlementRegister",
      "outputs": [],
      "stateMutability": "payable",
      "type": "function"
    },
    {
      "inputs": [
        {
          "internalType": "string",
          "name": "referree",
          "type": "string"
        },
        {
          "internalType": "string",
          "name": "name",
          "type": "string"
        },
        {
          "internalType": "address",
          "name": "owner",
          "type": "address"
        },
        {
          "internalType": "uint256",
          "name": "amount",
          "type": "uint256"
        },
        {
          "internalType": "address",
          "name": "receiver",
          "type": "address"
        }
      ],
      "name": "settlementRegisterWithCard",
      "outputs": [],
      "stateMutability": "nonpayable",
      "type": "function"
    },
    {
      "inputs": [
        {
          "internalType": "string",
          "name": "referree",
          "type": "string"
        },
        {
          "internalType": "string",
          "name": "name",
          "type": "string"
        },
        {
          "internalType": "address",
          "name": "owner",
          "type": "address"
        },
        {
          "internalType": "uint256",
          "name": "amount",
          "type": "uint256"
        },
        {
          "internalType": "address",
          "name": "tokenAddress",
          "type": "address"
        }
      ],
      "name": "settlementRegisterWithToken",
      "outputs": [],
      "stateMutability": "nonpayable",
      "type": "function"
    },
    {
      "inputs": [
        {
          "internalType": "uint256",
          "name": "amount",
          "type": "uint256"
        },
        {
          "internalType": "address",
          "name": "receiver",
          "type": "address"
        },
        {
          "internalType": "address",
          "name": "tokenAddress",
          "type": "address"
        },
        {
          "internalType": "string",
          "name": "referree",
          "type": "string"
        }
      ],
      "name": "settlementWithToken",
      "outputs": [],
      "stateMutability": "nonpayable",
      "type": "function"
    },
    {
      "inputs": [
        {
          "internalType": "address",
          "name": "",
          "type": "address"
        }
      ],
      "name": "snapshotNativeEarnings",
      "outputs": [
        {
          "internalType": "uint256",
          "name": "",
          "type": "uint256"
        }
      ],
      "stateMutability": "view",
      "type": "function"
    },
    {
      "inputs": [
        {
          "internalType": "address",
          "name": "",
          "type": "address"
        },
        {
          "internalType": "address",
          "name": "",
          "type": "address"
        }
      ],
      "name": "snapshotTokenEarnings",
      "outputs": [
        {
          "internalType": "uint256",
          "name": "",
          "type": "uint256"
        }
      ],
      "stateMutability": "view",
      "type": "function"
    },
    {
      "inputs": [],
      "name": "snapshotUntrackedEarnings",
      "outputs": [
        {
          "internalType": "uint256",
          "name": "",
          "type": "uint256"
        }
      ],
      "stateMutability": "view",
      "type": "function"
    },
    {
      "inputs": [
        {
          "internalType": "address",
          "name": "tokenAddress",
          "type": "address"
        }
      ],
      "name": "tokenBalance",
      "outputs": [
        {
          "internalType": "uint256",
          "name": "",
          "type": "uint256"
        }
      ],
      "stateMutability": "view",
      "type": "function"
    },
    {
      "inputs": [
        {
          "internalType": "address",
          "name": "",
          "type": "address"
        },
        {
          "internalType": "address",
          "name": "",
          "type": "address"
        }
      ],
      "name": "tokenEarnings",
      "outputs": [
        {
          "internalType": "uint256",
          "name": "",
          "type": "uint256"
        }
      ],
      "stateMutability": "view",
      "type": "function"
    },
    {
      "inputs": [
        {
          "internalType": "address",
          "name": "referrer",
          "type": "address"
        }
      ],
      "name": "totalNativeEarnings",
      "outputs": [
        {
          "internalType": "uint256",
          "name": "",
          "type": "uint256"
        }
      ],
      "stateMutability": "view",
      "type": "function"
    },
    {
      "inputs": [
        {
          "internalType": "address",
          "name": "referrer",
          "type": "address"
        }
      ],
      "name": "totalReferrals",
      "outputs": [
        {
          "internalType": "uint256",
          "name": "",
          "type": "uint256"
        }
      ],
      "stateMutability": "view",
      "type": "function"
    },
    {
      "inputs": [
        {
          "internalType": "address",
          "name": "referrer",
          "type": "address"
        },
        {
          "internalType": "address",
          "name": "tokenAddress",
          "type": "address"
        }
      ],
      "name": "totalTokenEarnings",
      "outputs": [
        {
          "internalType": "uint256",
          "name": "",
          "type": "uint256"
        }
      ],
      "stateMutability": "view",
      "type": "function"
    },
    {
      "inputs": [],
      "name": "trackedNativeEarnings",
      "outputs": [
        {
          "internalType": "uint256",
          "name": "",
          "type": "uint256"
        }
      ],
      "stateMutability": "view",
      "type": "function"
    },
    {
      "inputs": [
        {
          "internalType": "address",
          "name": "",
          "type": "address"
        }
      ],
      "name": "trackedTokenEarnings",
      "outputs": [
        {
          "internalType": "uint256",
          "name": "",
          "type": "uint256"
        }
      ],
      "stateMutability": "view",
      "type": "function"
    },
    {
      "inputs": [
        {
          "internalType": "address",
          "name": "newOwner",
          "type": "address"
        }
      ],
      "name": "transferOwnership",
      "outputs": [],
      "stateMutability": "nonpayable",
      "type": "function"
    },
    {
      "inputs": [],
      "name": "untrackedEarnings",
      "outputs": [
        {
          "internalType": "uint256",
          "name": "",
          "type": "uint256"
        }
      ],
      "stateMutability": "view",
      "type": "function"
    },
    {
      "inputs": [
        {
          "internalType": "bytes32",
          "name": "code",
          "type": "bytes32"
        },
        {
          "internalType": "uint256",
          "name": "newExpiry",
          "type": "uint256"
        }
      ],
      "name": "updateReferralCode",
      "outputs": [],
      "stateMutability": "nonpayable",
      "type": "function"
    },
    {
      "inputs": [
        {
          "internalType": "uint256",
          "name": "batch",
          "type": "uint256"
        }
      ],
      "name": "withdrawAllNativeEarnings",
      "outputs": [],
      "stateMutability": "nonpayable",
      "type": "function"
    },
    {
      "inputs": [
        {
          "internalType": "address[]",
          "name": "tokenAddresses",
          "type": "address[]"
        },
        {
          "internalType": "uint256",
          "name": "batch",
          "type": "uint256"
        }
      ],
      "name": "withdrawAllTokenEarnings",
      "outputs": [],
      "stateMutability": "nonpayable",
      "type": "function"
    }
  ],
  "transactionHash": "0xaedebbee30dff347f1ed5c78c19d2113d0f71466a1a8f034d1d98c62e7f77f40",
  "args": [],
  "numDeployments": 1,
  "solcInputHash": "c7e40ea5f033df78220ad43e326ccd0c",
  "bytecode": "0x608060405234801561001057600080fd5b5061001a3361001f565b61006f565b600080546001600160a01b038381166001600160a01b0319831681178455604051919092169283917f8be0079c531659141344cd1fd0a4f28419497f9722a3daafe3b4186f6b6457e09190a35050565b61286c8061007e6000396000f3fe6080604052600436106102a05760003560e01c8063afbcb2691161016e578063d7397f22116100cb578063ec0a920f1161007f578063eedc966a11610064578063eedc966a146107bb578063f2fde38b146107db578063ff8f3947146107fb57600080fd5b8063ec0a920f14610765578063edaf9f6e1461078557600080fd5b8063dbbb1968116100b0578063dbbb1968146106fa578063e697b5d814610732578063e858db081461075257600080fd5b8063d7397f22146106a4578063da8c229e146106ba57600080fd5b8063c62c7b7711610122578063d0da614411610107578063d0da614414610637578063d184befa14610657578063d488ac121461067757600080fd5b8063c62c7b77146105f5578063c70ad00c1461060a57600080fd5b8063c08d52af11610153578063c08d52af14610594578063c210401b146105ca578063c29fb0f1146105e057600080fd5b8063afbcb26914610561578063b69ef8a81461058157600080fd5b8063715018a61161021c5780638b07795b116101d057806395a885c2116101b557806395a885c2146105165780639c31e6ea1461052b578063a7fc7a071461054157600080fd5b80638b07795b146104c45780638da5cb5b146104e457600080fd5b8063830ecef811610201578063830ecef81461044a578063839df94514610477578063898c6495146104a457600080fd5b8063715018a6146104225780637d31266a1461043757600080fd5b80633ba96fdf1161027357806344430b691161025857806344430b69146103ac5780635d5d2dec146103cc578063668c91c81461040257600080fd5b80633ba96fdf1461035f5780633eae35451461038c57600080fd5b80630814cdc1146102a55780631f8e2271146102f057806320447f0b14610312578063338bc97014610332575b600080fd5b3480156102b157600080fd5b506102dd6102c03660046121cd565b600d60209081526000928352604080842090915290825290205481565b6040519081526020015b60405180910390f35b3480156102fc57600080fd5b5061031061030b366004612200565b61081b565b005b34801561031e57600080fd5b5061031061032d3660046122f8565b610a66565b34801561033e57600080fd5b5061035261034d36600461232d565b610ba7565b6040516102e7919061236a565b34801561036b57600080fd5b506102dd61037a36600461239d565b600c6020526000908152604090205481565b34801561039857600080fd5b506103106103a73660046123bf565b610c41565b3480156103b857600080fd5b506102dd6103c736600461232d565b610d9a565b3480156103d857600080fd5b506102dd6103e736600461239d565b6001600160a01b031660009081526007602052604090205490565b34801561040e57600080fd5b5061031061041d366004612474565b610dd4565b34801561042e57600080fd5b50610310610ed1565b6103106104453660046124cb565b610ee5565b34801561045657600080fd5b506102dd61046536600461239d565b600f6020526000908152604090205481565b34801561048357600080fd5b506102dd61049236600461232d565b60026020526000908152604090205481565b3480156104b057600080fd5b506103106104bf3660046124cb565b61113e565b3480156104d057600080fd5b506103106104df36600461255a565b61134b565b3480156104f057600080fd5b506000546001600160a01b03165b6040516001600160a01b0390911681526020016102e7565b34801561052257600080fd5b50600b546102dd565b34801561053757600080fd5b506102dd600a5481565b34801561054d57600080fd5b5061031061055c36600461239d565b61142c565b34801561056d57600080fd5b506102dd61057c36600461232d565b6114b1565b34801561058d57600080fd5b50476102dd565b3480156105a057600080fd5b506102dd6105af36600461239d565b6001600160a01b031660009081526005602052604090205490565b3480156105d657600080fd5b506102dd600b5481565b3480156105ec57600080fd5b506009546102dd565b34801561060157600080fd5b50600a546102dd565b34801561061657600080fd5b506102dd61062536600461239d565b60076020526000908152604090205481565b34801561064357600080fd5b506102dd6106523660046121cd565b6114d2565b34801561066357600080fd5b5061031061067236600461257c565b6114ff565b34801561068357600080fd5b506102dd61069236600461232d565b60046020526000908152604090205481565b3480156106b057600080fd5b506102dd600e5481565b3480156106c657600080fd5b506106ea6106d536600461239d565b60016020526000908152604090205460ff1681565b60405190151581526020016102e7565b34801561070657600080fd5b506102dd6107153660046121cd565b600860209081526000928352604080842090915290825290205481565b34801561073e57600080fd5b506102dd61074d3660046125e4565b611621565b610310610760366004612474565b611652565b34801561077157600080fd5b5061031061078036600461232d565b611783565b34801561079157600080fd5b506104fe6107a036600461232d565b6003602052600090815260409020546001600160a01b031681565b3480156107c757600080fd5b506102dd6107d636600461239d565b61193c565b3480156107e757600080fd5b506103106107f636600461239d565b6119c0565b34801561080757600080fd5b506103106108163660046124cb565b611a50565b3360009081526001602052604090205460ff168061084357506000546001600160a01b031633145b6108945760405162461bcd60e51b815260206004820152601960248201527f4e6f74206120636f6e74726f6c6c6572206f72206f776e65720000000000000060448201526064015b60405180910390fd5b826108e15760405162461bcd60e51b815260206004820152601560248201527f496e76616c696420726566657272616c20636f64650000000000000000000000604482015260640161088b565b6001600160a01b0382166109375760405162461bcd60e51b815260206004820152601860248201527f496e76616c696420726566657272656520616464726573730000000000000000604482015260640161088b565b6000838152600360205260409020546001600160a01b03161561099c5760405162461bcd60e51b815260206004820181905260248201527f526566657272616c20636f646520616c72656164792072656769737465726564604482015260640161088b565b6000838152600360205260409020546001600160a01b031680156109ed5760408051600080825260208083018085526001600160a01b0386168352600590915292902090516109eb9290612151565b505b506000838152600360209081526040808320805473ffffffffffffffffffffffffffffffffffffffff19166001600160a01b03969096169590951790945560098054600181019091557f6e1540171b6c0c960b71a7020d9f60077f6af931a8bbf590da0223dacf75c7af01949094556004909352912055565b610a6e611c5b565b600a54600b5560005b600954811015610adf57600060098281548110610a9657610a9661260e565b60009182526020808320909101548252600381526040808320546001600160a01b031683526007825280832054600c909252909120555080610ad78161263a565b915050610a77565b5060005b8151811015610ba3576000828281518110610b0057610b0061260e565b6020026020010151905060005b600954811015610b8e57600060098281548110610b2c57610b2c61260e565b60009182526020808320909101548252600381526040808320546001600160a01b039081168085526008845282852091881680865291845282852054908552600d84528285209185529252909120555080610b868161263a565b915050610b0d565b50508080610b9b9061263a565b915050610ae3565b5050565b60066020526000908152604090208054610bc090612653565b80601f0160208091040260200160405190810160405280929190818152602001828054610bec90612653565b8015610c395780601f10610c0e57610100808354040283529160200191610c39565b820191906000526020600020905b815481529060010190602001808311610c1c57829003601f168201915b505050505081565b610c49611c5b565b815160005b81811015610d94576000848281518110610c6a57610c6a61260e565b6020026020010151905060005b84811015610d8a57600060098281548110610c9457610c9461260e565b906000526020600020015490506004600082815260200190815260200160002054421015610d81576000818152600360209081526040808320546001600160a01b0390811680855260088452828520918816855292529091205480610d3b5760405162461bcd60e51b815260206004820152601760248201527f4e6f206561726e696e677320746f207769746864726177000000000000000000604482015260640161088b565b8015610d7e57610d556001600160a01b0386168383611cb5565b6001600160a01b0380831660009081526008602090815260408083209389168352929052908120555b50505b50600101610c77565b5050600101610c4e565b50505050565b600060148210610dac57506019919050565b600f8210610dbc57506014919050565b60028210610dcc5750600f919050565b506000919050565b3360009081526001602052604090205460ff1680610dfc57506000546001600160a01b031633145b610e485760405162461bcd60e51b815260206004820152601960248201527f4e6f74206120636f6e74726f6c6c6572206f72206f776e657200000000000000604482015260640161088b565b426004600083805190602001208152602001908152602001600020541115610ecc576001600160a01b038216610ec05760405162461bcd60e51b815260206004820152601860248201527f496e76616c696420726563656976657220616464726573730000000000000000604482015260640161088b565b610ecc82846001611d35565b505050565b610ed9611c5b565b610ee36000611df5565b565b3360009081526001602052604090205460ff1680610f0d57506000546001600160a01b031633145b610f595760405162461bcd60e51b815260206004820152601960248201527f4e6f74206120636f6e74726f6c6c6572206f72206f776e657200000000000000604482015260640161088b565b6001600160a01b03811615801590610f835750826001600160a01b0316816001600160a01b031614155b610fcf5760405162461bcd60e51b815260206004820152601860248201527f496e76616c696420726563656976657220616464726573730000000000000000604482015260640161088b565b4260046000878051906020012081526020019081526020016000205411156110fc576000805b6001600160a01b03831660009081526005602052604090205481101561107e57858051906020012060056000856001600160a01b03166001600160a01b0316815260200190815260200160002082815481106110535761105361260e565b90600052602060002001540361106c576001915061107e565b806110768161263a565b915050610ff5565b508015156000036110ea576001600160a01b03821660009081526005602090815260408083208851898401908120825460018101845592865284862090920191909155885190208352600690915290206110d887826126d3565b506110e582846000611d35565b6110f6565b6110f682846000611d35565b50611137565b600080546040516001600160a01b039091169184156108fc02918591818181858888f19350505050158015611135573d6000803e3d6000fd5b505b5050505050565b3360009081526001602052604090205460ff168061116657506000546001600160a01b031633145b6111b25760405162461bcd60e51b815260206004820152601960248201527f4e6f74206120636f6e74726f6c6c6572206f72206f776e657200000000000000604482015260640161088b565b6001600160a01b038116158015906111dc5750826001600160a01b0316816001600160a01b031614155b6112285760405162461bcd60e51b815260206004820152601860248201527f496e76616c696420726563656976657220616464726573730000000000000000604482015260640161088b565b426004600087805190602001208152602001908152602001600020541115611137576000805b6001600160a01b0383166000908152600560205260409020548110156112d357858051906020012060056000856001600160a01b03166001600160a01b0316815260200190815260200160002082815481106112ac576112ac61260e565b9060005260206000200154036112c157600191505b806112cb8161263a565b91505061124e565b5080151560000361133f576001600160a01b038216600090815260056020908152604080832088518984019081208254600181018455928652848620909201919091558851902083526006909152902061132d87826126d3565b5061133a82846001611d35565b611135565b61113582846001611d35565b3360009081526001602052604090205460ff168061137357506000546001600160a01b031633145b6113bf5760405162461bcd60e51b815260206004820152601960248201527f4e6f74206120636f6e74726f6c6c6572206f72206f776e657200000000000000604482015260640161088b565b60008281526004602052604090205461141a5760405162461bcd60e51b815260206004820152601c60248201527f526566657272616c20636f646520646f6573206e6f7420657869737400000000604482015260640161088b565b60009182526004602052604090912055565b611434611c5b565b6001600160a01b03811661148a5760405162461bcd60e51b815260206004820152601a60248201527f496e76616c696420636f6e74726f6c6c65722061646472657373000000000000604482015260640161088b565b6001600160a01b03166000908152600160208190526040909120805460ff19169091179055565b600981815481106114c157600080fd5b600091825260209091200154905081565b6001600160a01b038083166000908152600860209081526040808320938516835292905220545b92915050565b3360009081526001602052604090205460ff168061152757506000546001600160a01b031633145b6115735760405162461bcd60e51b815260206004820152601960248201527f4e6f74206120636f6e74726f6c6c6572206f72206f776e657200000000000000604482015260640161088b565b4260046000838051906020012081526020019081526020016000205411156115fb576001600160a01b0383166115eb5760405162461bcd60e51b815260206004820152601860248201527f496e76616c696420726563656976657220616464726573730000000000000000604482015260640161088b565b6115f6838386611e52565b610d94565b610d946116106000546001600160a01b031690565b6001600160a01b0384169086611cb5565b6005602052816000526040600020818154811061163d57600080fd5b90600052602060002001600091509150505481565b3360009081526001602052604090205460ff168061167a57506000546001600160a01b031633145b6116c65760405162461bcd60e51b815260206004820152601960248201527f4e6f74206120636f6e74726f6c6c6572206f72206f776e657200000000000000604482015260640161088b565b42600460008380519060200120815260200190815260200160002054111561174a576001600160a01b03821661173e5760405162461bcd60e51b815260206004820152601860248201527f496e76616c696420726563656976657220616464726573730000000000000000604482015260640161088b565b610ecc82846000611d35565b600080546040516001600160a01b039091169185156108fc02918691818181858888f19350505050158015610d94573d6000803e3d6000fd5b61178b611c5b565b60005b818110156118ca576000600983815481106117ab576117ab61260e565b9060005260206000200154905060046000828152602001908152602001600020544210156118c1576000818152600360209081526040808320546001600160a01b031680845260079092529091205480156118be576000826001600160a01b03168260405160006040518083038185875af1925050503d806000811461184d576040519150601f19603f3d011682016040523d82523d6000602084013e611852565b606091505b50509050806118a35760405162461bcd60e51b815260206004820152600e60248201527f5061796d656e74206661696c6564000000000000000000000000000000000000604482015260640161088b565b506001600160a01b0382166000908152600760205260408120555b50505b5060010161178e565b5047801561190d57600080546040516001600160a01b039091169183156108fc02918491818181858888f1935050505015801561190b573d6000803e3d6000fd5b505b60405133907f8139efc425db5c04b6dd4e0df2e2ae5d44350cfb145cfbfc83bf39abbc2591ee90600090a25050565b6040517f70a082310000000000000000000000000000000000000000000000000000000081523060048201526000906001600160a01b038316906370a0823190602401602060405180830381865afa15801561199c573d6000803e3d6000fd5b505050506040513d601f19601f820116820180604052508101906114f99190612793565b6119c8611c5b565b6001600160a01b038116611a445760405162461bcd60e51b815260206004820152602660248201527f4f776e61626c653a206e6577206f776e657220697320746865207a65726f206160448201527f6464726573730000000000000000000000000000000000000000000000000000606482015260840161088b565b611a4d81611df5565b50565b3360009081526001602052604090205460ff1680611a7857506000546001600160a01b031633145b611ac45760405162461bcd60e51b815260206004820152601960248201527f4e6f74206120636f6e74726f6c6c6572206f72206f776e657200000000000000604482015260640161088b565b426004600087805190602001208152602001908152602001600020541115611c355784516020808701919091206000908152600390915260409020546001600160a01b03168015801590611b2a5750836001600160a01b0316816001600160a01b031614155b156110f6576000805b6001600160a01b038316600090815260056020526040902054811015611bb857868051906020012060056000856001600160a01b03166001600160a01b031681526020019081526020016000208281548110611b9157611b9161260e565b906000526020600020015403611ba657600191505b80611bb08161263a565b915050611b33565b50801515600003611c23576001600160a01b038216600090815260056020908152604080832089518a840190812082546001810184559286528486209092019190915589519020835260069091529020611c1288826126d3565b50611c1e828486611e52565b611c2e565b611c2e828486611e52565b5050611137565b611137611c4a6000546001600160a01b031690565b6001600160a01b0383169084611cb5565b6000546001600160a01b03163314610ee35760405162461bcd60e51b815260206004820181905260248201527f4f776e61626c653a2063616c6c6572206973206e6f7420746865206f776e6572604482015260640161088b565b604080516001600160a01b038416602482015260448082018490528251808303909101815260649091019091526020810180517bffffffffffffffffffffffffffffffffffffffffffffffffffffffff167fa9059cbb00000000000000000000000000000000000000000000000000000000179052610ecc908490611ec2565b6001600160a01b038316600090815260056020526040902054606490611d5a90610d9a565b611d6490846127ac565b611d6e91906127c3565b6001600160a01b03841660009081526007602052604081208054909190611d969084906127e5565b90915550508015610ecc576001600160a01b038316600090815260056020526040902054606490611dc690610d9a565b611dd090846127ac565b611dda91906127c3565b600a6000828254611deb91906127e5565b9091555050505050565b600080546001600160a01b0383811673ffffffffffffffffffffffffffffffffffffffff19831681178455604051919092169283917f8be0079c531659141344cd1fd0a4f28419497f9722a3daafe3b4186f6b6457e09190a35050565b6001600160a01b038316600090815260056020526040902054606490611e7790610d9a565b611e8190836127ac565b611e8b91906127c3565b6001600160a01b03808516600090815260086020908152604080832093871683529290529081208054909190611deb9084906127e5565b6000611f17826040518060400160405280602081526020017f5361666545524332303a206c6f772d6c6576656c2063616c6c206661696c6564815250856001600160a01b0316611faa9092919063ffffffff16565b9050805160001480611f38575080806020019051810190611f3891906127f8565b610ecc5760405162461bcd60e51b815260206004820152602a60248201527f5361666545524332303a204552433230206f7065726174696f6e20646964206e60448201527f6f74207375636365656400000000000000000000000000000000000000000000606482015260840161088b565b6060611fb98484600085611fc1565b949350505050565b6060824710156120395760405162461bcd60e51b815260206004820152602660248201527f416464726573733a20696e73756666696369656e742062616c616e636520666f60448201527f722063616c6c0000000000000000000000000000000000000000000000000000606482015260840161088b565b600080866001600160a01b03168587604051612055919061281a565b60006040518083038185875af1925050503d8060008114612092576040519150601f19603f3d011682016040523d82523d6000602084013e612097565b606091505b50915091506120a8878383876120b3565b979650505050505050565b6060831561212257825160000361211b576001600160a01b0385163b61211b5760405162461bcd60e51b815260206004820152601d60248201527f416464726573733a2063616c6c20746f206e6f6e2d636f6e7472616374000000604482015260640161088b565b5081611fb9565b611fb983838151156121375781518083602001fd5b8060405162461bcd60e51b815260040161088b919061236a565b82805482825590600052602060002090810192821561218c579160200282015b8281111561218c578251825591602001919060010190612171565b5061219892915061219c565b5090565b5b80821115612198576000815560010161219d565b80356001600160a01b03811681146121c857600080fd5b919050565b600080604083850312156121e057600080fd5b6121e9836121b1565b91506121f7602084016121b1565b90509250929050565b60008060006060848603121561221557600080fd5b83359250612225602085016121b1565b9150604084013590509250925092565b634e487b7160e01b600052604160045260246000fd5b604051601f8201601f1916810167ffffffffffffffff8111828210171561227457612274612235565b604052919050565b600082601f83011261228d57600080fd5b8135602067ffffffffffffffff8211156122a9576122a9612235565b8160051b6122b882820161224b565b92835284810182019282810190878511156122d257600080fd5b83870192505b848310156120a8576122e9836121b1565b825291830191908301906122d8565b60006020828403121561230a57600080fd5b813567ffffffffffffffff81111561232157600080fd5b611fb98482850161227c565b60006020828403121561233f57600080fd5b5035919050565b60005b83811015612361578181015183820152602001612349565b50506000910152565b6020815260008251806020840152612389816040850160208701612346565b601f01601f19169190910160400192915050565b6000602082840312156123af57600080fd5b6123b8826121b1565b9392505050565b600080604083850312156123d257600080fd5b823567ffffffffffffffff8111156123e957600080fd5b6123f58582860161227c565b95602094909401359450505050565b600082601f83011261241557600080fd5b813567ffffffffffffffff81111561242f5761242f612235565b612442601f8201601f191660200161224b565b81815284602083860101111561245757600080fd5b816020850160208301376000918101602001919091529392505050565b60008060006060848603121561248957600080fd5b83359250612499602085016121b1565b9150604084013567ffffffffffffffff8111156124b557600080fd5b6124c186828701612404565b9150509250925092565b600080600080600060a086880312156124e357600080fd5b853567ffffffffffffffff808211156124fb57600080fd5b61250789838a01612404565b9650602088013591508082111561251d57600080fd5b5061252a88828901612404565b945050612539604087016121b1565b92506060860135915061254e608087016121b1565b90509295509295909350565b6000806040838503121561256d57600080fd5b50508035926020909101359150565b6000806000806080858703121561259257600080fd5b843593506125a2602086016121b1565b92506125b0604086016121b1565b9150606085013567ffffffffffffffff8111156125cc57600080fd5b6125d887828801612404565b91505092959194509250565b600080604083850312156125f757600080fd5b612600836121b1565b946020939093013593505050565b634e487b7160e01b600052603260045260246000fd5b634e487b7160e01b600052601160045260246000fd5b60006001820161264c5761264c612624565b5060010190565b600181811c9082168061266757607f821691505b60208210810361268757634e487b7160e01b600052602260045260246000fd5b50919050565b601f821115610ecc57600081815260208120601f850160051c810160208610156126b45750805b601f850160051c820191505b81811015611135578281556001016126c0565b815167ffffffffffffffff8111156126ed576126ed612235565b612701816126fb8454612653565b8461268d565b602080601f831160018114612736576000841561271e5750858301515b600019600386901b1c1916600185901b178555611135565b600085815260208120601f198616915b8281101561276557888601518255948401946001909101908401612746565b50858210156127835787850151600019600388901b60f8161c191681555b5050505050600190811b01905550565b6000602082840312156127a557600080fd5b5051919050565b80820281158282048414176114f9576114f9612624565b6000826127e057634e487b7160e01b600052601260045260246000fd5b500490565b808201808211156114f9576114f9612624565b60006020828403121561280a57600080fd5b815180151581146123b857600080fd5b6000825161282c818460208701612346565b919091019291505056fea2646970667358221220e0260e6672ad54e64c987650e35190fedfa0396dbbe0cfaedca8dfb14abbdd6064736f6c63430008110033",
  "devdoc": {
    "kind": "dev",
    "methods": {
      "owner()": {
        "details": "Returns the address of the current owner."
      },
      "renounceOwnership()": {
        "details": "Leaves the contract without owner. It will not be possible to call `onlyOwner` functions. Can only be called by the current owner. NOTE: Renouncing ownership will leave the contract without an owner, thereby disabling any functionality that is only available to the owner."
      },
      "transferOwnership(address)": {
        "details": "Transfers ownership of the contract to a new account (`newOwner`). Can only be called by the current owner."
      }
    },
    "version": 1
  },
  "userdoc": {
    "kind": "user",
    "methods": {
      "setReferree(bytes32,address,uint256)": {
        "notice": "Only your controller or admin should be able to call this!"
      }
    },
    "version": 1
  },
  "storageLayout": {
    "storage": [
      {
        "astId": 53,
        "contract": "contracts/ethregistrar/ReferralController.sol:ReferralController",
        "label": "_owner",
        "offset": 0,
        "slot": "0",
        "type": "t_address"
      },
      {
        "astId": 7168,
        "contract": "contracts/ethregistrar/ReferralController.sol:ReferralController",
        "label": "controllers",
        "offset": 0,
        "slot": "1",
        "type": "t_mapping(t_address,t_bool)"
      },
      {
        "astId": 7172,
        "contract": "contracts/ethregistrar/ReferralController.sol:ReferralController",
        "label": "commitments",
        "offset": 0,
        "slot": "2",
        "type": "t_mapping(t_bytes32,t_uint256)"
      },
      {
        "astId": 7176,
        "contract": "contracts/ethregistrar/ReferralController.sol:ReferralController",
        "label": "referrees",
        "offset": 0,
        "slot": "3",
        "type": "t_mapping(t_bytes32,t_address)"
      },
      {
        "astId": 7180,
        "contract": "contracts/ethregistrar/ReferralController.sol:ReferralController",
        "label": "expirydates",
        "offset": 0,
        "slot": "4",
        "type": "t_mapping(t_bytes32,t_uint256)"
      },
      {
        "astId": 7185,
        "contract": "contracts/ethregistrar/ReferralController.sol:ReferralController",
        "label": "referrals",
        "offset": 0,
        "slot": "5",
        "type": "t_mapping(t_address,t_array(t_bytes32)dyn_storage)"
      },
      {
        "astId": 7189,
        "contract": "contracts/ethregistrar/ReferralController.sol:ReferralController",
        "label": "referredBy",
        "offset": 0,
        "slot": "6",
        "type": "t_mapping(t_bytes32,t_string_storage)"
      },
      {
        "astId": 7193,
        "contract": "contracts/ethregistrar/ReferralController.sol:ReferralController",
        "label": "nativeEarnings",
        "offset": 0,
        "slot": "7",
        "type": "t_mapping(t_address,t_uint256)"
      },
      {
        "astId": 7199,
        "contract": "contracts/ethregistrar/ReferralController.sol:ReferralController",
        "label": "tokenEarnings",
        "offset": 0,
        "slot": "8",
        "type": "t_mapping(t_address,t_mapping(t_address,t_uint256))"
      },
      {
        "astId": 7202,
        "contract": "contracts/ethregistrar/ReferralController.sol:ReferralController",
        "label": "referralCodes",
        "offset": 0,
        "slot": "9",
        "type": "t_array(t_bytes32)dyn_storage"
      },
      {
        "astId": 7204,
        "contract": "contracts/ethregistrar/ReferralController.sol:ReferralController",
        "label": "untrackedEarnings",
        "offset": 0,
        "slot": "10",
        "type": "t_uint256"
      },
      {
        "astId": 7206,
        "contract": "contracts/ethregistrar/ReferralController.sol:ReferralController",
        "label": "snapshotUntrackedEarnings",
        "offset": 0,
        "slot": "11",
        "type": "t_uint256"
      },
      {
        "astId": 7210,
        "contract": "contracts/ethregistrar/ReferralController.sol:ReferralController",
        "label": "snapshotNativeEarnings",
        "offset": 0,
        "slot": "12",
        "type": "t_mapping(t_address,t_uint256)"
      },
      {
        "astId": 7216,
        "contract": "contracts/ethregistrar/ReferralController.sol:ReferralController",
        "label": "snapshotTokenEarnings",
        "offset": 0,
        "slot": "13",
        "type": "t_mapping(t_address,t_mapping(t_address,t_uint256))"
      },
      {
        "astId": 7218,
        "contract": "contracts/ethregistrar/ReferralController.sol:ReferralController",
        "label": "trackedNativeEarnings",
        "offset": 0,
        "slot": "14",
        "type": "t_uint256"
      },
      {
        "astId": 7222,
        "contract": "contracts/ethregistrar/ReferralController.sol:ReferralController",
        "label": "trackedTokenEarnings",
        "offset": 0,
        "slot": "15",
        "type": "t_mapping(t_address,t_uint256)"
      }
    ],
    "types": {
      "t_address": {
        "encoding": "inplace",
        "label": "address",
        "numberOfBytes": "20"
      },
      "t_array(t_bytes32)dyn_storage": {
        "base": "t_bytes32",
        "encoding": "dynamic_array",
        "label": "bytes32[]",
        "numberOfBytes": "32"
      },
      "t_bool": {
        "encoding": "inplace",
        "label": "bool",
        "numberOfBytes": "1"
      },
      "t_bytes32": {
        "encoding": "inplace",
        "label": "bytes32",
        "numberOfBytes": "32"
      },
      "t_mapping(t_address,t_array(t_bytes32)dyn_storage)": {
        "encoding": "mapping",
        "key": "t_address",
        "label": "mapping(address => bytes32[])",
        "numberOfBytes": "32",
        "value": "t_array(t_bytes32)dyn_storage"
      },
      "t_mapping(t_address,t_bool)": {
        "encoding": "mapping",
        "key": "t_address",
        "label": "mapping(address => bool)",
        "numberOfBytes": "32",
        "value": "t_bool"
      },
      "t_mapping(t_address,t_mapping(t_address,t_uint256))": {
        "encoding": "mapping",
        "key": "t_address",
        "label": "mapping(address => mapping(address => uint256))",
        "numberOfBytes": "32",
        "value": "t_mapping(t_address,t_uint256)"
      },
      "t_mapping(t_address,t_uint256)": {
        "encoding": "mapping",
        "key": "t_address",
        "label": "mapping(address => uint256)",
        "numberOfBytes": "32",
        "value": "t_uint256"
      },
      "t_mapping(t_bytes32,t_address)": {
        "encoding": "mapping",
        "key": "t_bytes32",
        "label": "mapping(bytes32 => address)",
        "numberOfBytes": "32",
        "value": "t_address"
      },
      "t_mapping(t_bytes32,t_string_storage)": {
        "encoding": "mapping",
        "key": "t_bytes32",
        "label": "mapping(bytes32 => string)",
        "numberOfBytes": "32",
        "value": "t_string_storage"
      },
      "t_mapping(t_bytes32,t_uint256)": {
        "encoding": "mapping",
        "key": "t_bytes32",
        "label": "mapping(bytes32 => uint256)",
        "numberOfBytes": "32",
        "value": "t_uint256"
      },
      "t_string_storage": {
        "encoding": "bytes",
        "label": "string",
        "numberOfBytes": "32"
      },
      "t_uint256": {
        "encoding": "inplace",
        "label": "uint256",
        "numberOfBytes": "32"
      }
    }
  }
}