{
  "address": "0xB85759dd66E5554bf4Fc0e19cc71eC11e0f3FE2E",
  "abi": [
    {
      "inputs": [
        {
          "internalType": "contract BaseRegistrarImplementation",
          "name": "_base",
          "type": "address"
        },
        {
          "internalType": "contract TokenPriceOracle",
          "name": "_prices",
          "type": "address"
        },
        {
          "internalType": "uint256",
          "name": "_minCommitmentAge",
          "type": "uint256"
        },
        {
          "internalType": "uint256",
          "name": "_maxCommitmentAge",
          "type": "uint256"
        },
        {
          "internalType": "contract ReverseRegistrar",
          "name": "_reverseRegistrar",
          "type": "address"
        },
        {
          "internalType": "contract INameWrapper",
          "name": "_nameWrapper",
          "type": "address"
        },
        {
          "internalType": "contract ENS",
          "name": "_ens",
          "type": "address"
        },
        {
          "internalType": "address",
          "name": "_infoFi",
          "type": "address"
        },
        {
          "internalType": "contract ReferralController",
          "name": "_referralController",
          "type": "address"
        }
      ],
      "stateMutability": "nonpayable",
      "type": "constructor"
    },
    {
      "inputs": [
        {
          "internalType": "bytes32",
          "name": "commitment",
          "type": "bytes32"
        }
      ],
      "name": "CommitmentTooNew",
      "type": "error"
    },
    {
      "inputs": [
        {
          "internalType": "bytes32",
          "name": "commitment",
          "type": "bytes32"
        }
      ],
      "name": "CommitmentTooOld",
      "type": "error"
    },
    {
      "inputs": [
        {
          "internalType": "uint256",
          "name": "duration",
          "type": "uint256"
        }
      ],
      "name": "DurationTooShort",
      "type": "error"
    },
    {
      "inputs": [],
      "name": "InsufficientValue",
      "type": "error"
    },
    {
      "inputs": [],
      "name": "MaxCommitmentAgeTooHigh",
      "type": "error"
    },
    {
      "inputs": [],
      "name": "MaxCommitmentAgeTooLow",
      "type": "error"
    },
    {
      "inputs": [
        {
          "internalType": "string",
          "name": "name",
          "type": "string"
        }
      ],
      "name": "NameNotAvailable",
      "type": "error"
    },
    {
      "inputs": [],
      "name": "ResolverRequiredWhenDataSupplied",
      "type": "error"
    },
    {
      "inputs": [
        {
          "internalType": "bytes32",
          "name": "commitment",
          "type": "bytes32"
        }
      ],
      "name": "UnexpiredCommitmentExists",
      "type": "error"
    },
    {
      "anonymous": false,
      "inputs": [
        {
          "indexed": false,
          "internalType": "string",
          "name": "name",
          "type": "string"
        },
        {
          "indexed": true,
          "internalType": "bytes32",
          "name": "label",
          "type": "bytes32"
        },
        {
          "indexed": true,
          "internalType": "address",
          "name": "owner",
          "type": "address"
        },
        {
          "indexed": false,
          "internalType": "uint256",
          "name": "baseCost",
          "type": "uint256"
        },
        {
          "indexed": false,
          "internalType": "uint256",
          "name": "premium",
          "type": "uint256"
        },
        {
          "indexed": false,
          "internalType": "uint256",
          "name": "expires",
          "type": "uint256"
        }
      ],
      "name": "NameRegistered",
      "type": "event"
    },
    {
      "anonymous": false,
      "inputs": [
        {
          "indexed": false,
          "internalType": "string",
          "name": "name",
          "type": "string"
        },
        {
          "indexed": true,
          "internalType": "bytes32",
          "name": "label",
          "type": "bytes32"
        },
        {
          "indexed": false,
          "internalType": "uint256",
          "name": "cost",
          "type": "uint256"
        },
        {
          "indexed": false,
          "internalType": "uint256",
          "name": "expires",
          "type": "uint256"
        }
      ],
      "name": "NameRenewed",
      "type": "event"
    },
    {
      "anonymous": false,
      "inputs": [
        {
          "indexed": true,
          "internalType": "address",
          "name": "previousOwner",
          "type": "address"
        },
        {
          "indexed": true,
          "internalType": "address",
          "name": "newOwner",
          "type": "address"
        }
      ],
      "name": "OwnershipTransferred",
      "type": "event"
    },
    {
      "inputs": [],
      "name": "MIN_REGISTRATION_DURATION",
      "outputs": [
        {
          "internalType": "uint256",
          "name": "",
          "type": "uint256"
        }
      ],
      "stateMutability": "view",
      "type": "function"
    },
    {
      "inputs": [
        {
          "internalType": "string",
          "name": "name",
          "type": "string"
        }
      ],
      "name": "available",
      "outputs": [
        {
          "internalType": "bool",
          "name": "",
          "type": "bool"
        }
      ],
      "stateMutability": "view",
      "type": "function"
    },
    {
      "inputs": [],
      "name": "backendWallet",
      "outputs": [
        {
          "internalType": "address",
          "name": "",
          "type": "address"
        }
      ],
      "stateMutability": "view",
      "type": "function"
    },
    {
      "inputs": [
        {
          "internalType": "bytes32",
          "name": "commitment",
          "type": "bytes32"
        }
      ],
      "name": "commit",
      "outputs": [],
      "stateMutability": "nonpayable",
      "type": "function"
    },
    {
      "inputs": [
        {
          "internalType": "bytes32",
          "name": "",
          "type": "bytes32"
        }
      ],
      "name": "commitments",
      "outputs": [
        {
          "internalType": "uint256",
          "name": "",
          "type": "uint256"
        }
      ],
      "stateMutability": "view",
      "type": "function"
    },
    {
      "inputs": [],
      "name": "infoFi",
      "outputs": [
        {
          "internalType": "address",
          "name": "",
          "type": "address"
        }
      ],
      "stateMutability": "view",
      "type": "function"
    },
    {
      "inputs": [
        {
          "internalType": "string",
          "name": "name",
          "type": "string"
        },
        {
          "internalType": "address",
          "name": "owner",
          "type": "address"
        },
        {
          "internalType": "uint256",
          "name": "duration",
          "type": "uint256"
        },
        {
          "internalType": "bytes32",
          "name": "secret",
          "type": "bytes32"
        },
        {
          "internalType": "address",
          "name": "resolver",
          "type": "address"
        },
        {
          "internalType": "bytes[]",
          "name": "data",
          "type": "bytes[]"
        },
        {
          "internalType": "bool",
          "name": "reverseRecord",
          "type": "bool"
        },
        {
          "internalType": "uint16",
          "name": "ownerControlledFuses",
          "type": "uint16"
        },
        {
          "internalType": "bool",
          "name": "lifetime",
          "type": "bool"
        }
      ],
      "name": "makeCommitment",
      "outputs": [
        {
          "internalType": "bytes32",
          "name": "",
          "type": "bytes32"
        }
      ],
      "stateMutability": "pure",
      "type": "function"
    },
    {
      "inputs": [],
      "name": "maxCommitmentAge",
      "outputs": [
        {
          "internalType": "uint256",
          "name": "",
          "type": "uint256"
        }
      ],
      "stateMutability": "view",
      "type": "function"
    },
    {
      "inputs": [],
      "name": "minCommitmentAge",
      "outputs": [
        {
          "internalType": "uint256",
          "name": "",
          "type": "uint256"
        }
      ],
      "stateMutability": "view",
      "type": "function"
    },
    {
      "inputs": [],
      "name": "nameWrapper",
      "outputs": [
        {
          "internalType": "contract INameWrapper",
          "name": "",
          "type": "address"
        }
      ],
      "stateMutability": "view",
      "type": "function"
    },
    {
      "inputs": [],
      "name": "owner",
      "outputs": [
        {
          "internalType": "address",
          "name": "",
          "type": "address"
        }
      ],
      "stateMutability": "view",
      "type": "function"
    },
    {
      "inputs": [],
      "name": "prices",
      "outputs": [
        {
          "internalType": "contract TokenPriceOracle",
          "name": "",
          "type": "address"
        }
      ],
      "stateMutability": "view",
      "type": "function"
    },
    {
      "inputs": [
        {
          "internalType": "address",
          "name": "_token",
          "type": "address"
        },
        {
          "internalType": "address",
          "name": "_to",
          "type": "address"
        },
        {
          "internalType": "uint256",
          "name": "_amount",
          "type": "uint256"
        }
      ],
      "name": "recoverFunds",
      "outputs": [],
      "stateMutability": "nonpayable",
      "type": "function"
    },
    {
      "inputs": [],
      "name": "referralController",
      "outputs": [
        {
          "internalType": "contract ReferralController",
          "name": "",
          "type": "address"
        }
      ],
      "stateMutability": "view",
      "type": "function"
    },
    {
      "inputs": [
        {
          "internalType": "string",
          "name": "name",
          "type": "string"
        },
        {
          "internalType": "address",
          "name": "owner",
          "type": "address"
        },
        {
          "internalType": "uint256",
          "name": "duration",
          "type": "uint256"
        },
        {
          "internalType": "bytes32",
          "name": "secret",
          "type": "bytes32"
        },
        {
          "internalType": "address",
          "name": "resolver",
          "type": "address"
        },
        {
          "internalType": "bytes[]",
          "name": "data",
          "type": "bytes[]"
        },
        {
          "internalType": "bool",
          "name": "reverseRecord",
          "type": "bool"
        },
        {
          "internalType": "uint16",
          "name": "ownerControlledFuses",
          "type": "uint16"
        },
        {
          "internalType": "bool",
          "name": "lifetime",
          "type": "bool"
        },
        {
          "internalType": "string",
          "name": "referree",
          "type": "string"
        }
      ],
      "name": "register",
      "outputs": [],
      "stateMutability": "payable",
      "type": "function"
    },
    {
      "inputs": [
        {
          "internalType": "string",
          "name": "name",
          "type": "string"
        },
        {
          "internalType": "address",
          "name": "owner",
          "type": "address"
        },
        {
          "internalType": "uint256",
          "name": "duration",
          "type": "uint256"
        },
        {
          "internalType": "bytes32",
          "name": "secret",
          "type": "bytes32"
        },
        {
          "internalType": "address",
          "name": "resolver",
          "type": "address"
        },
        {
          "internalType": "bytes[]",
          "name": "data",
          "type": "bytes[]"
        },
        {
          "internalType": "bool",
          "name": "reverseRecord",
          "type": "bool"
        },
        {
          "internalType": "uint16",
          "name": "ownerControlledFuses",
          "type": "uint16"
        },
        {
          "internalType": "bool",
          "name": "lifetime",
          "type": "bool"
        },
        {
          "internalType": "string",
          "name": "referree",
          "type": "string"
        }
      ],
      "name": "registerWithCard",
      "outputs": [],
      "stateMutability": "nonpayable",
      "type": "function"
    },
    {
      "inputs": [
        {
          "components": [
            {
              "internalType": "string",
              "name": "name",
              "type": "string"
            },
            {
              "internalType": "address",
              "name": "owner",
              "type": "address"
            },
            {
              "internalType": "uint256",
              "name": "duration",
              "type": "uint256"
            },
            {
              "internalType": "bytes32",
              "name": "secret",
              "type": "bytes32"
            },
            {
              "internalType": "address",
              "name": "resolver",
              "type": "address"
            },
            {
              "internalType": "bytes[]",
              "name": "data",
              "type": "bytes[]"
            },
            {
              "internalType": "bool",
              "name": "reverseRecord",
              "type": "bool"
            },
            {
              "internalType": "uint16",
              "name": "ownerControlledFuses",
              "type": "uint16"
            }
          ],
          "internalType": "struct IETHRegistrarController.RegisterParams",
          "name": "registerParams",
          "type": "tuple"
        },
        {
          "components": [
            {
              "internalType": "string",
              "name": "token",
              "type": "string"
            },
            {
              "internalType": "address",
              "name": "tokenAddress",
              "type": "address"
            }
          ],
          "internalType": "struct IETHRegistrarController.TokenParams",
          "name": "tokenParams",
          "type": "tuple"
        },
        {
          "internalType": "bool",
          "name": "lifetime",
          "type": "bool"
        },
        {
          "internalType": "string",
          "name": "referree",
          "type": "string"
        }
      ],
      "name": "registerWithToken",
      "outputs": [],
      "stateMutability": "nonpayable",
      "type": "function"
    },
    {
      "inputs": [
        {
          "internalType": "string",
          "name": "name",
          "type": "string"
        },
        {
          "internalType": "uint256",
          "name": "duration",
          "type": "uint256"
        },
        {
          "internalType": "bool",
          "name": "lifetime",
          "type": "bool"
        }
      ],
      "name": "renew",
      "outputs": [],
      "stateMutability": "payable",
      "type": "function"
    },
    {
      "inputs": [
        {
          "internalType": "string",
          "name": "name",
          "type": "string"
        },
        {
          "internalType": "uint256",
          "name": "duration",
          "type": "uint256"
        },
        {
          "internalType": "bool",
          "name": "lifetime",
          "type": "bool"
        }
      ],
      "name": "renewCard",
      "outputs": [],
      "stateMutability": "nonpayable",
      "type": "function"
    },
    {
      "inputs": [
        {
          "internalType": "string",
          "name": "name",
          "type": "string"
        },
        {
          "internalType": "uint256",
          "name": "duration",
          "type": "uint256"
        },
        {
          "internalType": "string",
          "name": "token",
          "type": "string"
        },
        {
          "internalType": "address",
          "name": "tokenAddress",
          "type": "address"
        },
        {
          "internalType": "bool",
          "name": "lifetime",
          "type": "bool"
        }
      ],
      "name": "renewTokens",
      "outputs": [],
      "stateMutability": "nonpayable",
      "type": "function"
    },
    {
      "inputs": [],
      "name": "renounceOwnership",
      "outputs": [],
      "stateMutability": "nonpayable",
      "type": "function"
    },
    {
      "inputs": [
        {
          "internalType": "string",
          "name": "name",
          "type": "string"
        },
        {
          "internalType": "uint256",
          "name": "duration",
          "type": "uint256"
        },
        {
          "internalType": "bool",
          "name": "lifetime",
          "type": "bool"
        }
      ],
      "name": "rentPrice",
      "outputs": [
        {
          "components": [
            {
              "internalType": "uint256",
              "name": "base",
              "type": "uint256"
            },
            {
              "internalType": "uint256",
              "name": "premium",
              "type": "uint256"
            }
          ],
          "internalType": "struct IPriceOracle.Price",
          "name": "price",
          "type": "tuple"
        }
      ],
      "stateMutability": "view",
      "type": "function"
    },
    {
      "inputs": [
        {
          "internalType": "string",
          "name": "name",
          "type": "string"
        },
        {
          "internalType": "uint256",
          "name": "duration",
          "type": "uint256"
        },
        {
          "internalType": "string",
          "name": "token",
          "type": "string"
        },
        {
          "internalType": "bool",
          "name": "lifetime",
          "type": "bool"
        }
      ],
      "name": "rentPriceToken",
      "outputs": [
        {
          "components": [
            {
              "internalType": "uint256",
              "name": "base",
              "type": "uint256"
            },
            {
              "internalType": "uint256",
              "name": "premium",
              "type": "uint256"
            }
          ],
          "internalType": "struct IPriceOracle.Price",
          "name": "price",
          "type": "tuple"
        }
      ],
      "stateMutability": "view",
      "type": "function"
    },
    {
      "inputs": [],
      "name": "resetInfoFi",
      "outputs": [],
      "stateMutability": "payable",
      "type": "function"
    },
    {
      "inputs": [],
      "name": "reverseRegistrar",
      "outputs": [
        {
          "internalType": "contract ReverseRegistrar",
          "name": "",
          "type": "address"
        }
      ],
      "stateMutability": "view",
      "type": "function"
    },
    {
      "inputs": [
        {
          "internalType": "address",
          "name": "wallet",
          "type": "address"
        }
      ],
      "name": "setBackend",
      "outputs": [],
      "stateMutability": "nonpayable",
      "type": "function"
    },
    {
      "inputs": [
        {
          "internalType": "address",
          "name": "tokenAddress",
          "type": "address"
        }
      ],
      "name": "setToken",
      "outputs": [],
      "stateMutability": "nonpayable",
      "type": "function"
    },
    {
      "inputs": [
        {
          "internalType": "bytes4",
          "name": "interfaceID",
          "type": "bytes4"
        }
      ],
      "name": "supportsInterface",
      "outputs": [
        {
          "internalType": "bool",
          "name": "",
          "type": "bool"
        }
      ],
      "stateMutability": "pure",
      "type": "function"
    },
    {
      "inputs": [
        {
          "internalType": "address",
          "name": "newOwner",
          "type": "address"
        }
      ],
      "name": "transferOwnership",
      "outputs": [],
      "stateMutability": "nonpayable",
      "type": "function"
    },
    {
      "inputs": [],
      "name": "untrackedInfoFi",
      "outputs": [
        {
          "internalType": "uint256",
          "name": "",
          "type": "uint256"
        }
      ],
      "stateMutability": "view",
      "type": "function"
    },
    {
      "inputs": [
        {
          "internalType": "string",
          "name": "name",
          "type": "string"
        }
      ],
      "name": "valid",
      "outputs": [
        {
          "internalType": "bool",
          "name": "",
          "type": "bool"
        }
      ],
      "stateMutability": "pure",
      "type": "function"
    },
    {
      "inputs": [
        {
          "internalType": "address",
          "name": "",
          "type": "address"
        }
      ],
      "name": "verifiedTokens",
      "outputs": [
        {
          "internalType": "bool",
          "name": "",
          "type": "bool"
        }
      ],
      "stateMutability": "view",
      "type": "function"
    },
    {
      "inputs": [],
      "name": "withdraw",
      "outputs": [],
      "stateMutability": "nonpayable",
      "type": "function"
    },
    {
      "inputs": [
        {
          "internalType": "address",
          "name": "tokenAddress",
          "type": "address"
        }
      ],
      "name": "withdrawTokens",
      "outputs": [],
      "stateMutability": "nonpayable",
      "type": "function"
    }
  ],
  "transactionHash": "0xb4cc6c6a9c5cbb4fd7b8fee823b07f496eaf2bf33ad9c152fedc01a710e3b366",
  "args": [
    "0x0393da9525982Be4C8b9812f8D2A877796fCA90b",
    "0xBc9aCd5592ac75cd4F2A83e97C736A2b1E22b466",
    "60",
    "86400",
    "0x2E5ba310fDa0aD5dfA4CC5656FAEDDd4CC4c162b",
    "0x399c16D8156E1145912c106DD811702440242B93",
    "0x8390D472587cCAe988dD06Ccd456Ac70CcF39038",
    "0x2A0D7311fA7e9aC2890CFd8219b2dEf0c206E79B",
    "0xf5F507D2a48B62082e3440B185f9e10a47156554"
  ],
  "numDeployments": 1,
  "solcInputHash": "877591c0c7c8cc635cf9fe0b1c3ee358",
  "bytecode": "0x6101606040523480156200001257600080fd5b5060405162004f1938038062004f19833981016040819052620000359162000242565b82336200004281620001d9565b6040516302571be360e01b81527f91d1777781884d03a6757a803996e38de2a42967fb37eeaca72729271025a9e260048201526000906001600160a01b038416906302571be390602401602060405180830381865afa158015620000aa573d6000803e3d6000fd5b505050506040513d601f19601f82011682018060405250810190620000d0919062000302565b604051630f41a04d60e11b81526001600160a01b03848116600483015291925090821690631e83409a906024016020604051808303816000875af11580156200011d573d6000803e3d6000fd5b505050506040513d601f19601f8201168201806040525081019062000143919062000329565b5050505086861162000168576040516307cb550760e31b815260040160405180910390fd5b428611156200018a57604051630b4319e560e21b815260040160405180910390fd5b6001600160a01b0398891660805296881660a05260c0959095525060e092909252841661010052831661012052600180546001600160a01b031916918416919091179055166101405262000343565b600080546001600160a01b038381166001600160a01b0319831681178455604051919092169283917f8be0079c531659141344cd1fd0a4f28419497f9722a3daafe3b4186f6b6457e09190a35050565b6001600160a01b03811681146200023f57600080fd5b50565b60008060008060008060008060006101208a8c0312156200026257600080fd5b89516200026f8162000229565b60208b0151909950620002828162000229565b8098505060408a0151965060608a0151955060808a0151620002a48162000229565b60a08b0151909550620002b78162000229565b60c08b0151909450620002ca8162000229565b60e08b0151909350620002dd8162000229565b6101008b0151909250620002f18162000229565b809150509295985092959850929598565b6000602082840312156200031557600080fd5b8151620003228162000229565b9392505050565b6000602082840312156200033c57600080fd5b5051919050565b60805160a05160c05160e051610100516101205161014051614a39620004e060003960008181610347015281816109e201528181610ddd01528181610e7a01528181610f3d01528181610fb701528181611018015281816111f501528181611300015281816113f3015281816114a20152818161151e0152818161174c01528181611879015281816119b001528181611a5f01528181611adb01528181611ce901528181611f0601528181612008015281816120b701528181612154015281816121e301528181612256015281816122b4015281816129a101528181612a7601528181612b2f015281816131c00152818161325d0152818161332001528181613397015261358e0152600081816105ce0152818161090001528181610cad0152818161128f0152818161180001528181611e8d01526128bf01526000818161045601526130ed01526000818161063801528181612d250152612f0c0152600081816104fc0152612e9501526000818161066c015281816124bf015261266b0152600081816124eb015281816126970152612c5d0152614a396000f3fe6080604052600436106102195760003560e01c8063839df9451161011d578063a680baaf116100b0578063ce1e09c01161007f578063da7fc24f11610064578063da7fc24f1461068e578063f14fcbc8146106ae578063f2fde38b146106ce57600080fd5b8063ce1e09c014610626578063d3419bf31461065a57600080fd5b8063a680baaf1461059c578063a8e5fbc0146105bc578063aeb8ce9b146105f0578063c53c0ec11461061057600080fd5b80638da5cb5b116100ec5780638da5cb5b1461051e5780639791c0971461053c578063a0e3aef11461055c578063a31bc89a1461057c57600080fd5b8063839df9451461047857806388cccc09146104b35780638a95b09f146104d35780638d839ffe146104ea57600080fd5b806349df728c116101b05780635d3590d51161017f578063715018a611610164578063715018a61461040f578063786d96a114610424578063808698531461044457600080fd5b80635d3590d5146103b45780636cfc51e2146103d457600080fd5b806349df728c146103155780634ba694bd146103355780634be2b2ec14610381578063569f8ab31461039457600080fd5b806323ed462e116101ec57806323ed462e146102ad57806327cdd135146102c05780633c3a7d35146102e05780633ccfd60b1461030057600080fd5b806301ffc9a71461021e578063094f716d14610253578063144fa6d71461025d5780631baaaffe1461027d575b600080fd5b34801561022a57600080fd5b5061023e610239366004613b59565b6106ee565b60405190151581526020015b60405180910390f35b61025b610757565b005b34801561026957600080fd5b5061025b610278366004613ba8565b61085f565b34801561028957600080fd5b5061023e610298366004613ba8565b60056020526000908152604090205460ff1681565b61025b6102bb366004613dab565b61088b565b3480156102cc57600080fd5b5061025b6102db366004613f15565b610b13565b3480156102ec57600080fd5b5061025b6102fb3660046140a2565b611116565b34801561030c57600080fd5b5061025b6115fc565b34801561032157600080fd5b5061025b610330366004613ba8565b611639565b34801561034157600080fd5b506103697f000000000000000000000000000000000000000000000000000000000000000081565b6040516001600160a01b03909116815260200161024a565b61025b61038f3660046140a2565b6116c7565b3480156103a057600080fd5b5061025b6103af366004614101565b611c47565b3480156103c057600080fd5b5061025b6103cf36600461419a565b6123a9565b3480156103e057600080fd5b506103f46103ef3660046141db565b61242a565b6040805182518152602092830151928101929092520161024a565b34801561041b57600080fd5b5061025b6125c2565b34801561043057600080fd5b506103f461043f366004614236565b6125d6565b34801561045057600080fd5b506103697f000000000000000000000000000000000000000000000000000000000000000081565b34801561048457600080fd5b506104a56104933660046142ab565b60026020526000908152604090205481565b60405190815260200161024a565b3480156104bf57600080fd5b50600154610369906001600160a01b031681565b3480156104df57600080fd5b506104a56224ea0081565b3480156104f657600080fd5b506104a57f000000000000000000000000000000000000000000000000000000000000000081565b34801561052a57600080fd5b506000546001600160a01b0316610369565b34801561054857600080fd5b5061023e6105573660046142c4565b612771565b34801561056857600080fd5b506104a56105773660046142f9565b612786565b34801561058857600080fd5b5061025b610597366004613dab565b612826565b3480156105a857600080fd5b50600354610369906001600160a01b031681565b3480156105c857600080fd5b506103697f000000000000000000000000000000000000000000000000000000000000000081565b3480156105fc57600080fd5b5061023e61060b3660046142c4565b612c14565b34801561061c57600080fd5b506104a560045481565b34801561063257600080fd5b506104a57f000000000000000000000000000000000000000000000000000000000000000081565b34801561066657600080fd5b506103697f000000000000000000000000000000000000000000000000000000000000000081565b34801561069a57600080fd5b5061025b6106a9366004613ba8565b612cd7565b3480156106ba57600080fd5b5061025b6106c93660046142ab565b612d0e565b3480156106da57600080fd5b5061025b6106e9366004613ba8565b612d97565b60006001600160e01b031982167f01ffc9a700000000000000000000000000000000000000000000000000000000148061075157506001600160e01b031982167ff2d8c3a500000000000000000000000000000000000000000000000000000000145b92915050565b61075f612e24565b600034116107b45760405162461bcd60e51b815260206004820152601f60248201527f4d7573742073656e642076616c756520746f20726573657420696e666f46690060448201526064015b60405180910390fd5b6001546040516000916001600160a01b03169034908381818185875af1925050503d8060008114610801576040519150601f19603f3d011682016040523d82523d6000602084013e610806565b606091505b50509050806108575760405162461bcd60e51b815260206004820152601860248201527f5061796d656e7420746f20696e666f4669206661696c6564000000000000000060448201526064016107ab565b506000600455565b610867612e24565b6001600160a01b03166000908152600560205260409020805460ff19166001179055565b60006108988b8a8561242a565b602081015181519192506108ab916143e2565b3410156108cb5760405163044044a560e21b815260040160405180910390fd5b6108e68b8a6108e18e8e8e8e8e8e8e8e8e612786565b612e7e565b604051635200a4c160e11b81526000906001600160a01b037f0000000000000000000000000000000000000000000000000000000000000000169063a40149829061093d908f908f908f908e908c90600401614445565b6020604051808303816000875af115801561095c573d6000803e3d6000fd5b505050506040513d601f19601f82011682018060405250810190610980919061448d565b87519091501561099c5761099c888d805190602001208961300b565b8515610a3f576109ad8c89336130eb565b8b5160208d0120604051631f8e227160e01b815260048101919091526001600160a01b038c81166024830152604482018390527f00000000000000000000000000000000000000000000000000000000000000001690631f8e227190606401600060405180830381600087803b158015610a2657600080fd5b505af1158015610a3a573d6000803e3d6000fd5b505050505b8a6001600160a01b03168c805190602001207f69e37f151eb98a09618ddaa80c8cfaf1ce5996867c489f45b555b412271ebf278e8560000151866020015186604051610a8e94939291906144a6565b60405180910390a360208201518251610aa791906143e2565b341115610af9576020820151825133916108fc91610ac591906143e2565b610acf90346144d5565b6040518115909202916000818181858888f19350505050158015610af7573d6000803e3d6000fd5b505b610b0582848e8e61319f565b505050505050505050505050565b6020808401516001600160a01b031660009081526005909152604090205460ff161515600114610b855760405162461bcd60e51b815260206004820152601860248201527f556e6e6163657074656420546f6b656e2041646472657373000000000000000060448201526064016107ab565b610bc3846000015185604001516108e18760000151886020015189604001518a606001518b608001518c60a001518d60c001518e60e001518d612786565b6000610bdd856000015186604001518660000151866125d6565b60208101518151919250610bf0916143e2565b60208501516040516370a0823160e01b81523360048201526001600160a01b03909116906370a0823190602401602060405180830381865afa158015610c3a573d6000803e3d6000fd5b505050506040513d601f19601f82011682018060405250810190610c5e919061448d565b1015610c7d5760405163044044a560e21b815260040160405180910390fd5b84516020860151604080880151608089015160e08a01519251635200a4c160e11b81526000956001600160a01b037f0000000000000000000000000000000000000000000000000000000000000000169563a401498295610ce49592949193600401614445565b6020604051808303816000875af1158015610d03573d6000803e3d6000fd5b505050506040513d601f19601f82011682018060405250810190610d27919061448d565b9050610d4b86600001518760a00151886020015189608001518a60c001518661352f565b610d598560200151836135e6565b85602001516001600160a01b03168660000151805190602001207f69e37f151eb98a09618ddaa80c8cfaf1ce5996867c489f45b555b412271ebf2788600001518560000151866020015186604051610db494939291906144a6565b60405180910390a3825160208401206040516376d7cfb760e11b81526000916001600160a01b037f0000000000000000000000000000000000000000000000000000000000000000169163edaf9f6e91610e149160040190815260200190565b602060405180830381865afa158015610e31573d6000803e3d6000fd5b505050506040513d601f19601f82011682018060405250810190610e5591906144e8565b60405163c08d52af60e01b81526001600160a01b0380831660048301529192506000917f0000000000000000000000000000000000000000000000000000000000000000169063c08d52af90602401602060405180830381865afa158015610ec1573d6000803e3d6000fd5b505050506040513d601f19601f82011682018060405250810190610ee5919061448d565b604080516020808201909252600090528651908701209091507fc5d2460186f7233c927e7db2dcc703c0e500b653ca82273b7bfad8045d85a470146110bd576040516344430b6960e01b8152600481018290526000907f00000000000000000000000000000000000000000000000000000000000000006001600160a01b0316906344430b6990602401602060405180830381865afa158015610f8c573d6000803e3d6000fd5b505050506040513d601f19601f82011682018060405250810190610fb0919061448d565b90506110167f000000000000000000000000000000000000000000000000000000000000000060648388602001518960000151610fed91906143e2565b610ff79190614505565b611001919061451c565b60208b01516001600160a01b03169190613615565b7f00000000000000000000000000000000000000000000000000000000000000006001600160a01b031663ff8f3947878b600001518c6020015189602001518a6000015161106491906143e2565b8d602001516040518663ffffffff1660e01b815260040161108995949392919061453e565b600060405180830381600087803b1580156110a357600080fd5b505af11580156110b7573d6000803e3d6000fd5b50505050505b6001546020850151855161110c926001600160a01b0316916064916110e291906143e2565b6110ed906023614505565b6110f7919061451c565b60208a01516001600160a01b03169190613615565b5050505050505050565b6003546001600160a01b031633146111705760405162461bcd60e51b815260206004820152600b60248201527f4e6f74204261636b656e6400000000000000000000000000000000000000000060448201526064016107ab565b6000848460405161118292919061458e565b604080519182900382206020601f8801819004810284018101909252868352925082916000916111d19190899089908190840183828082843760009201919091525089925088915061242a9050565b604051630338bc9760e41b8152600481018590529091506000906001600160a01b037f0000000000000000000000000000000000000000000000000000000000000000169063338bc97090602401600060405180830381865afa15801561123c573d6000803e3d6000fd5b505050506040513d6000823e601f3d908101601f1916820160405261126491908101906145ce565b60405163c475abff60e01b815260048101859052602481018890529091506000906001600160a01b037f0000000000000000000000000000000000000000000000000000000000000000169063c475abff906044016020604051808303816000875af11580156112d8573d6000803e3d6000fd5b505050506040513d601f19601f820116820180604052508101906112fc919061448d565b90507f00000000000000000000000000000000000000000000000000000000000000006001600160a01b0316638b07795b8a8a60405161133d92919061458e565b60405190819003812060e083901b6001600160e01b0319168252600482015260248101849052604401600060405180830381600087803b15801561138057600080fd5b505af1158015611394573d6000803e3d6000fd5b50505050847f3da24c024582931cfaf8267d8ed24d13a82a8068d5bd337d30ec45cea4e506ae8a8a8660000151856040516113d29493929190614617565b60405180910390a2815160208301206040516376d7cfb760e11b81526000917f00000000000000000000000000000000000000000000000000000000000000006001600160a01b03169163edaf9f6e916114329160040190815260200190565b602060405180830381865afa15801561144f573d6000803e3d6000fd5b505050506040513d601f19601f8201168201806040525081019061147391906144e8565b6001600160a01b0316146115b357815160208301206040516376d7cfb760e11b81526000916001600160a01b037f0000000000000000000000000000000000000000000000000000000000000000169163edaf9f6e916114d99160040190815260200190565b602060405180830381865afa1580156114f6573d6000803e3d6000fd5b505050506040513d601f19601f8201168201806040525081019061151a91906144e8565b90507f00000000000000000000000000000000000000000000000000000000000000006001600160a01b031663668c91c88560200151866000015161155f91906143e2565b83866040518463ffffffff1660e01b815260040161157f93929190614657565b600060405180830381600087803b15801561159957600080fd5b505af11580156115ad573d6000803e3d6000fd5b50505050505b602083015183516064916115c6916143e2565b6115d1906023614505565b6115db919061451c565b600460008282546115ec91906143e2565b9091555050505050505050505050565b600080546040516001600160a01b03909116914780156108fc02929091818181858888f19350505050158015611636573d6000803e3d6000fd5b50565b61163661164e6000546001600160a01b031690565b6040516370a0823160e01b81523060048201526001600160a01b038416906370a0823190602401602060405180830381865afa158015611692573d6000803e3d6000fd5b505050506040513d601f19601f820116820180604052508101906116b6919061448d565b6001600160a01b0384169190613615565b600084846040516116d992919061458e565b604080519182900382206020601f8801819004810284018101909252868352925082916000916117289190899089908190840183828082843760009201919091525089925088915061242a9050565b604051630338bc9760e41b8152600481018590529091506000906001600160a01b037f0000000000000000000000000000000000000000000000000000000000000000169063338bc97090602401600060405180830381865afa158015611793573d6000803e3d6000fd5b505050506040513d6000823e601f3d908101601f191682016040526117bb91908101906145ce565b82519091503410156117e05760405163044044a560e21b815260040160405180910390fd5b60405163c475abff60e01b815260048101849052602481018790526000907f00000000000000000000000000000000000000000000000000000000000000006001600160a01b03169063c475abff906044016020604051808303816000875af1158015611851573d6000803e3d6000fd5b505050506040513d601f19601f82011682018060405250810190611875919061448d565b90507f00000000000000000000000000000000000000000000000000000000000000006001600160a01b0316638b07795b8a8a6040516118b692919061458e565b60405190819003812060e083901b6001600160e01b0319168252600482015260248101849052604401600060405180830381600087803b1580156118f957600080fd5b505af115801561190d573d6000803e3d6000fd5b50505050826000015134111561195957825133906108fc9061192f90346144d5565b6040518115909202916000818181858888f19350505050158015611957573d6000803e3d6000fd5b505b847f3da24c024582931cfaf8267d8ed24d13a82a8068d5bd337d30ec45cea4e506ae8a8a348560405161198f9493929190614617565b60405180910390a2815160208301206040516376d7cfb760e11b81526000917f00000000000000000000000000000000000000000000000000000000000000006001600160a01b03169163edaf9f6e916119ef9160040190815260200190565b602060405180830381865afa158015611a0c573d6000803e3d6000fd5b505050506040513d601f19601f82011682018060405250810190611a3091906144e8565b6001600160a01b031614611b7057815160208301206040516376d7cfb760e11b81526000916001600160a01b037f0000000000000000000000000000000000000000000000000000000000000000169163edaf9f6e91611a969160040190815260200190565b602060405180830381865afa158015611ab3573d6000803e3d6000fd5b505050506040513d601f19601f82011682018060405250810190611ad791906144e8565b90507f00000000000000000000000000000000000000000000000000000000000000006001600160a01b031663e858db0885602001518660000151611b1c91906143e2565b83866040518463ffffffff1660e01b8152600401611b3c93929190614657565b600060405180830381600087803b158015611b5657600080fd5b505af1158015611b6a573d6000803e3d6000fd5b50505050505b600154602084015184516000926001600160a01b031691606491611b9491906143e2565b611b9f906023614505565b611ba9919061451c565b604051600081818185875af1925050503d8060008114611be5576040519150601f19603f3d011682016040523d82523d6000602084013e611bea565b606091505b5050905080611c3b5760405162461bcd60e51b815260206004820152601860248201527f5061796d656e7420746f20696e666f4669206661696c6564000000000000000060448201526064016107ab565b50505050505050505050565b6001600160a01b03821660009081526005602052604090205460ff161515600114611cb45760405162461bcd60e51b815260206004820152601860248201527f556e6e6163657074656420546f6b656e2041646472657373000000000000000060448201526064016107ab565b60008686604051611cc692919061458e565b604051908190038120630338bc9760e41b825260048201819052915081906000907f00000000000000000000000000000000000000000000000000000000000000006001600160a01b03169063338bc97090602401600060405180830381865afa158015611d38573d6000803e3d6000fd5b505050506040513d6000823e601f3d908101601f19168201604052611d6091908101906145ce565b90506000611da88a8a8080601f0160208091040260200160405190810160405280939291908181526020018383808284376000920191909152508c92508b91508990506125d6565b60208101518151919250611dbb916143e2565b6040516370a0823160e01b81523360048201526001600160a01b038816906370a0823190602401602060405180830381865afa158015611dff573d6000803e3d6000fd5b505050506040513d601f19601f82011682018060405250810190611e23919061448d565b1015611e425760405163044044a560e21b815260040160405180910390fd5b611e6d333083602001518460000151611e5b91906143e2565b6001600160a01b038a1692919061368d565b60405163c475abff60e01b815260048101849052602481018990526000907f00000000000000000000000000000000000000000000000000000000000000006001600160a01b03169063c475abff906044016020604051808303816000875af1158015611ede573d6000803e3d6000fd5b505050506040513d601f19601f82011682018060405250810190611f02919061448d565b90507f00000000000000000000000000000000000000000000000000000000000000006001600160a01b0316638b07795b8c8c604051611f4392919061458e565b60405190819003812060e083901b6001600160e01b0319168252600482015260248101849052604401600060405180830381600087803b158015611f8657600080fd5b505af1158015611f9a573d6000803e3d6000fd5b50505050847f3da24c024582931cfaf8267d8ed24d13a82a8068d5bd337d30ec45cea4e506ae8c8c85602001518660000151611fd691906143e2565b85604051611fe79493929190614617565b60405180910390a2825160208401206040516376d7cfb760e11b81526000917f00000000000000000000000000000000000000000000000000000000000000006001600160a01b03169163edaf9f6e916120479160040190815260200190565b602060405180830381865afa158015612064573d6000803e3d6000fd5b505050506040513d601f19601f8201168201806040525081019061208891906144e8565b6001600160a01b03161461234d57825160208401206040516376d7cfb760e11b81526000916001600160a01b037f0000000000000000000000000000000000000000000000000000000000000000169163edaf9f6e916120ee9160040190815260200190565b602060405180830381865afa15801561210b573d6000803e3d6000fd5b505050506040513d601f19601f8201168201806040525081019061212f91906144e8565b60405163c08d52af60e01b81526001600160a01b0380831660048301529192506000917f0000000000000000000000000000000000000000000000000000000000000000169063c08d52af90602401602060405180830381865afa15801561219b573d6000803e3d6000fd5b505050506040513d601f19601f820116820180604052508101906121bf919061448d565b6040516344430b6960e01b8152600481018290529091506000906001600160a01b037f000000000000000000000000000000000000000000000000000000000000000016906344430b6990602401602060405180830381865afa15801561222a573d6000803e3d6000fd5b505050506040513d601f19601f8201168201806040525081019061224e919061448d565b90506122b2307f000000000000000000000000000000000000000000000000000000000000000060648489602001518a6000015161228c91906143e2565b6122969190614505565b6122a0919061451c565b6001600160a01b038e1692919061368d565b7f00000000000000000000000000000000000000000000000000000000000000006001600160a01b031663d184befa866020015187600001516122f591906143e2565b858d8a6040518563ffffffff1660e01b8152600401612317949392919061467f565b600060405180830381600087803b15801561233157600080fd5b505af1158015612345573d6000803e3d6000fd5b505050505050505b6001546020830151835161239c9230926001600160a01b0390911691606491612375916143e2565b612380906023614505565b61238a919061451c565b6001600160a01b038b1692919061368d565b5050505050505050505050565b6123b1612e24565b60405163a9059cbb60e01b81526001600160a01b0383811660048301526024820183905284169063a9059cbb906044016020604051808303816000875af1158015612400573d6000803e3d6000fd5b505050506040513d601f19601f8201168201806040525081019061242491906146b1565b50505050565b604080518082019091526000808252602082015282158061244e57506224ea008310155b61249a5760405162461bcd60e51b815260206004820152601060248201527f496e76616c6964206475726174696f6e0000000000000000000000000000000060448201526064016107ab565b83516020850120604051636b727d4360e11b8152600481018290526001600160a01b037f0000000000000000000000000000000000000000000000000000000000000000811691638416a3749188917f00000000000000000000000000000000000000000000000000000000000000009091169063d6e4fa8690602401602060405180830381865afa158015612534573d6000803e3d6000fd5b505050506040513d601f19601f82011682018060405250810190612558919061448d565b87876040518563ffffffff1660e01b815260040161257994939291906146ce565b6040805180830381865afa158015612595573d6000803e3d6000fd5b505050506040513d601f19601f820116820180604052508101906125b991906146ff565b95945050505050565b6125ca612e24565b6125d460006136de565b565b60408051808201909152600080825260208201528315806125fa57506224ea008410155b6126465760405162461bcd60e51b815260206004820152601060248201527f496e76616c6964206475726174696f6e0000000000000000000000000000000060448201526064016107ab565b84516020860120604051636b727d4360e11b8152600481018290526001600160a01b037f0000000000000000000000000000000000000000000000000000000000000000811691638361401d9189917f00000000000000000000000000000000000000000000000000000000000000009091169063d6e4fa8690602401602060405180830381865afa1580156126e0573d6000803e3d6000fd5b505050506040513d601f19601f82011682018060405250810190612704919061448d565b8888886040518663ffffffff1660e01b815260040161272795949392919061474e565b6040805180830381865afa158015612743573d6000803e3d6000fd5b505050506040513d601f19601f8201168201806040525081019061276791906146ff565b9695505050505050565b6000600261277e8361373b565b101592915050565b885160208a0120845160009190158015906127a857506001600160a01b038716155b156127df576040517fd3f605c400000000000000000000000000000000000000000000000000000000815260040160405180910390fd5b808a8a8a8a8a8a8a8a604051602001612800999897969594939291906147e9565b604051602081830303815290604052805190602001209150509998505050505050505050565b6003546001600160a01b031633146128805760405162461bcd60e51b815260206004820152600b60248201527f4e6f74204261636b656e6400000000000000000000000000000000000000000060448201526064016107ab565b600061288d8b8a8561242a565b90506128a58b8a6108e18e8e8e8e8e8e8e8e8e612786565b604051635200a4c160e11b81526000906001600160a01b037f0000000000000000000000000000000000000000000000000000000000000000169063a4014982906128fc908f908f908f908e908c90600401614445565b6020604051808303816000875af115801561291b573d6000803e3d6000fd5b505050506040513d601f19601f8201168201806040525081019061293f919061448d565b87519091501561295b5761295b888d805190602001208961300b565b85156129fe5761296c8c898d6130eb565b8b5160208d0120604051631f8e227160e01b815260048101919091526001600160a01b038c81166024830152604482018c90527f00000000000000000000000000000000000000000000000000000000000000001690631f8e227190606401600060405180830381600087803b1580156129e557600080fd5b505af11580156129f9573d6000803e3d6000fd5b505050505b8a6001600160a01b03168c805190602001207f69e37f151eb98a09618ddaa80c8cfaf1ce5996867c489f45b555b412271ebf278e8560000151866020015186604051612a4d94939291906144a6565b60405180910390a3825160208401206040516376d7cfb760e11b81526000916001600160a01b037f0000000000000000000000000000000000000000000000000000000000000000169163edaf9f6e91612aad9160040190815260200190565b602060405180830381865afa158015612aca573d6000803e3d6000fd5b505050506040513d601f19601f82011682018060405250810190612aee91906144e8565b604080516020808201909252600090528551908601209091507fc5d2460186f7233c927e7db2dcc703c0e500b653ca82273b7bfad8045d85a47014612bc7577f00000000000000000000000000000000000000000000000000000000000000006001600160a01b031663898c6495858f8f87602001518860000151612b7391906143e2565b866040518663ffffffff1660e01b8152600401612b9495949392919061453e565b600060405180830381600087803b158015612bae57600080fd5b505af1158015612bc2573d6000803e3d6000fd5b505050505b60208301518351606491612bda916143e2565b612be5906023614505565b612bef919061451c565b60046000828254612c0091906143e2565b909155505050505050505050505050505050565b80516020820120600090612c2783612771565b8015612cd057506040517f96e494e8000000000000000000000000000000000000000000000000000000008152600481018290527f00000000000000000000000000000000000000000000000000000000000000006001600160a01b0316906396e494e890602401602060405180830381865afa158015612cac573d6000803e3d6000fd5b505050506040513d601f19601f82011682018060405250810190612cd091906146b1565b9392505050565b612cdf612e24565b6003805473ffffffffffffffffffffffffffffffffffffffff19166001600160a01b0392909216919091179055565b6000818152600260205260409020544290612d4a907f0000000000000000000000000000000000000000000000000000000000000000906143e2565b10612d84576040517f0a059d71000000000000000000000000000000000000000000000000000000008152600481018290526024016107ab565b6000908152600260205260409020429055565b612d9f612e24565b6001600160a01b038116612e1b5760405162461bcd60e51b815260206004820152602660248201527f4f776e61626c653a206e6577206f776e657220697320746865207a65726f206160448201527f646472657373000000000000000000000000000000000000000000000000000060648201526084016107ab565b611636816136de565b6000546001600160a01b031633146125d45760405162461bcd60e51b815260206004820181905260248201527f4f776e61626c653a2063616c6c6572206973206e6f7420746865206f776e657260448201526064016107ab565b6000818152600260205260409020544290612eba907f0000000000000000000000000000000000000000000000000000000000000000906143e2565b1115612ef5576040517f5320bcf9000000000000000000000000000000000000000000000000000000008152600481018290526024016107ab565b6000818152600260205260409020544290612f31907f0000000000000000000000000000000000000000000000000000000000000000906143e2565b11612f6b576040517fcb7690d7000000000000000000000000000000000000000000000000000000008152600481018290526024016107ab565b612f7483612c14565b612fac57826040517f477707e80000000000000000000000000000000000000000000000000000000081526004016107ab9190614851565b6000818152600260205260408120558115801590612fcc57506224ea0082105b15613006576040517f9a71997b000000000000000000000000000000000000000000000000000000008152600481018390526024016107ab565b505050565b604080517f4f2c0fc83d175c423d55ddf2fef3b9b38af479fac3adb42afb02778397a27454602080830191909152818301859052825180830384018152606083019384905280519101207fe32954eb0000000000000000000000000000000000000000000000000000000090925284906001600160a01b0382169063e32954eb9061309c9085908790606401614864565b6000604051808303816000875af11580156130bb573d6000803e3d6000fd5b505050506040513d6000823e601f3d908101601f191682016040526130e3919081019061487d565b505050505050565b7f00000000000000000000000000000000000000000000000000000000000000006001600160a01b0316637a806d6b3383858760405160200161312e9190614943565b6040516020818303038152906040526040518563ffffffff1660e01b815260040161315c9493929190614984565b6020604051808303816000875af115801561317b573d6000803e3d6000fd5b505050506040513d601f19601f82011682018060405250810190612424919061448d565b825160208401206040516376d7cfb760e11b81526000916001600160a01b037f0000000000000000000000000000000000000000000000000000000000000000169163edaf9f6e916131f79160040190815260200190565b602060405180830381865afa158015613214573d6000803e3d6000fd5b505050506040513d601f19601f8201168201806040525081019061323891906144e8565b60405163c08d52af60e01b81526001600160a01b0380831660048301529192506000917f0000000000000000000000000000000000000000000000000000000000000000169063c08d52af90602401602060405180830381865afa1580156132a4573d6000803e3d6000fd5b505050506040513d601f19601f820116820180604052508101906132c8919061448d565b604080516020808201909252600090528651908701209091507fc5d2460186f7233c927e7db2dcc703c0e500b653ca82273b7bfad8045d85a4701461345b576040516344430b6960e01b8152600481018290526000907f00000000000000000000000000000000000000000000000000000000000000006001600160a01b0316906344430b6990602401602060405180830381865afa15801561336f573d6000803e3d6000fd5b505050506040513d601f19601f82011682018060405250810190613393919061448d565b90507f00000000000000000000000000000000000000000000000000000000000000006001600160a01b0316637d31266a6064838a602001518b600001516133db91906143e2565b6133e59190614505565b6133ef919061451c565b8888888c602001518d6000015161340691906143e2565b896040518763ffffffff1660e01b815260040161342795949392919061453e565b6000604051808303818588803b15801561344057600080fd5b505af1158015613454573d6000803e3d6000fd5b5050505050505b600154602087015187516000926001600160a01b03169160649161347f91906143e2565b61348a906023614505565b613494919061451c565b604051600081818185875af1925050503d80600081146134d0576040519150601f19603f3d011682016040523d82523d6000602084013e6134d5565b606091505b50509050806135265760405162461bcd60e51b815260206004820152601860248201527f5061796d656e7420746f20696e666f4669206661696c6564000000000000000060448201526064016107ab565b50505050505050565b845115613548576135488387805190602001208761300b565b81156130e3576135598684336130eb565b85516020870120604051631f8e227160e01b815260048101919091526001600160a01b038581166024830152604482018390527f00000000000000000000000000000000000000000000000000000000000000001690631f8e227190606401600060405180830381600087803b1580156135d257600080fd5b505af1158015611c3b573d6000803e3d6000fd5b6136113330836020015184600001516135ff91906143e2565b6001600160a01b03861692919061368d565b5050565b6040516001600160a01b03831660248201526044810182905261300690849063a9059cbb60e01b906064015b60408051601f198184030181529190526020810180517bffffffffffffffffffffffffffffffffffffffffffffffffffffffff166001600160e01b0319909316929092179091526138ca565b6040516001600160a01b03808516602483015283166044820152606481018290526124249085907f23b872dd0000000000000000000000000000000000000000000000000000000090608401613641565b600080546001600160a01b0383811673ffffffffffffffffffffffffffffffffffffffff19831681178455604051919092169283917f8be0079c531659141344cd1fd0a4f28419497f9722a3daafe3b4186f6b6457e09190a35050565b8051600090819081905b808210156138c1576000858381518110613761576137616149b8565b01602001516001600160f81b03191690507f80000000000000000000000000000000000000000000000000000000000000008110156137ac576137a56001846143e2565b92506138ae565b7fe0000000000000000000000000000000000000000000000000000000000000006001600160f81b0319821610156137e9576137a56002846143e2565b7ff0000000000000000000000000000000000000000000000000000000000000006001600160f81b031982161015613826576137a56003846143e2565b7ff8000000000000000000000000000000000000000000000000000000000000006001600160f81b031982161015613863576137a56004846143e2565b7ffc000000000000000000000000000000000000000000000000000000000000006001600160f81b0319821610156138a0576137a56005846143e2565b6138ab6006846143e2565b92505b50826138b9816149ce565b935050613745565b50909392505050565b600061391f826040518060400160405280602081526020017f5361666545524332303a206c6f772d6c6576656c2063616c6c206661696c6564815250856001600160a01b03166139b29092919063ffffffff16565b905080516000148061394057508080602001905181019061394091906146b1565b6130065760405162461bcd60e51b815260206004820152602a60248201527f5361666545524332303a204552433230206f7065726174696f6e20646964206e60448201527f6f7420737563636565640000000000000000000000000000000000000000000060648201526084016107ab565b60606139c184846000856139c9565b949350505050565b606082471015613a415760405162461bcd60e51b815260206004820152602660248201527f416464726573733a20696e73756666696369656e742062616c616e636520666f60448201527f722063616c6c000000000000000000000000000000000000000000000000000060648201526084016107ab565b600080866001600160a01b03168587604051613a5d91906149e7565b60006040518083038185875af1925050503d8060008114613a9a576040519150601f19603f3d011682016040523d82523d6000602084013e613a9f565b606091505b5091509150613ab087838387613abb565b979650505050505050565b60608315613b2a578251600003613b23576001600160a01b0385163b613b235760405162461bcd60e51b815260206004820152601d60248201527f416464726573733a2063616c6c20746f206e6f6e2d636f6e747261637400000060448201526064016107ab565b50816139c1565b6139c18383815115613b3f5781518083602001fd5b8060405162461bcd60e51b81526004016107ab9190614851565b600060208284031215613b6b57600080fd5b81356001600160e01b031981168114612cd057600080fd5b6001600160a01b038116811461163657600080fd5b8035613ba381613b83565b919050565b600060208284031215613bba57600080fd5b8135612cd081613b83565b634e487b7160e01b600052604160045260246000fd5b604051610100810167ffffffffffffffff81118282101715613bff57613bff613bc5565b60405290565b604051601f8201601f1916810167ffffffffffffffff81118282101715613c2e57613c2e613bc5565b604052919050565b600067ffffffffffffffff821115613c5057613c50613bc5565b50601f01601f191660200190565b6000613c71613c6c84613c36565b613c05565b9050828152838383011115613c8557600080fd5b828260208301376000602084830101529392505050565b600082601f830112613cad57600080fd5b612cd083833560208501613c5e565b600067ffffffffffffffff821115613cd657613cd6613bc5565b5060051b60200190565b600082601f830112613cf157600080fd5b81356020613d01613c6c83613cbc565b82815260059290921b84018101918181019086841115613d2057600080fd5b8286015b84811015613d7557803567ffffffffffffffff811115613d445760008081fd5b8701603f81018913613d565760008081fd5b613d67898683013560408401613c5e565b845250918301918301613d24565b509695505050505050565b801515811461163657600080fd5b8035613ba381613d80565b803561ffff81168114613ba357600080fd5b6000806000806000806000806000806101408b8d031215613dcb57600080fd5b8a3567ffffffffffffffff80821115613de357600080fd5b613def8e838f01613c9c565b9b50613dfd60208e01613b98565b9a5060408d0135995060608d01359850613e1960808e01613b98565b975060a08d0135915080821115613e2f57600080fd5b613e3b8e838f01613ce0565b9650613e4960c08e01613d8e565b9550613e5760e08e01613d99565b9450613e666101008e01613d8e565b93506101208d0135915080821115613e7d57600080fd5b50613e8a8d828e01613c9c565b9150509295989b9194979a5092959850565b600060408284031215613eae57600080fd5b6040516040810167ffffffffffffffff8282108183111715613ed257613ed2613bc5565b816040528293508435915080821115613eea57600080fd5b50613ef785828601613c9c565b8252506020830135613f0881613b83565b6020919091015292915050565b60008060008060808587031215613f2b57600080fd5b843567ffffffffffffffff80821115613f4357600080fd5b908601906101008289031215613f5857600080fd5b613f60613bdb565b823582811115613f6f57600080fd5b613f7b8a828601613c9c565b825250613f8a60208401613b98565b60208201526040830135604082015260608301356060820152613faf60808401613b98565b608082015260a083013582811115613fc657600080fd5b613fd28a828601613ce0565b60a083015250613fe460c08401613d8e565b60c0820152613ff560e08401613d99565b60e08201529550602087013591508082111561401057600080fd5b61401c88838901613e9c565b945061402a60408801613d8e565b9350606087013591508082111561404057600080fd5b5061404d87828801613c9c565b91505092959194509250565b60008083601f84011261406b57600080fd5b50813567ffffffffffffffff81111561408357600080fd5b60208301915083602082850101111561409b57600080fd5b9250929050565b600080600080606085870312156140b857600080fd5b843567ffffffffffffffff8111156140cf57600080fd5b6140db87828801614059565b9095509350506020850135915060408501356140f681613d80565b939692955090935050565b60008060008060008060a0878903121561411a57600080fd5b863567ffffffffffffffff8082111561413257600080fd5b61413e8a838b01614059565b909850965060208901359550604089013591508082111561415e57600080fd5b5061416b89828a01613c9c565b935050606087013561417c81613b83565b9150608087013561418c81613d80565b809150509295509295509295565b6000806000606084860312156141af57600080fd5b83356141ba81613b83565b925060208401356141ca81613b83565b929592945050506040919091013590565b6000806000606084860312156141f057600080fd5b833567ffffffffffffffff81111561420757600080fd5b61421386828701613c9c565b93505060208401359150604084013561422b81613d80565b809150509250925092565b6000806000806080858703121561424c57600080fd5b843567ffffffffffffffff8082111561426457600080fd5b61427088838901613c9c565b955060208701359450604087013591508082111561428d57600080fd5b5061429a87828801613c9c565b92505060608501356140f681613d80565b6000602082840312156142bd57600080fd5b5035919050565b6000602082840312156142d657600080fd5b813567ffffffffffffffff8111156142ed57600080fd5b6139c184828501613c9c565b60008060008060008060008060006101208a8c03121561431857600080fd5b893567ffffffffffffffff8082111561433057600080fd5b61433c8d838e01613c9c565b9a5060208c0135915061434e82613b83565b90985060408b0135975060608b0135965060808b01359061436e82613b83565b90955060a08b0135908082111561438457600080fd5b506143918c828d01613ce0565b9450506143a060c08b01613d8e565b92506143ae60e08b01613d99565b91506143bd6101008b01613d8e565b90509295985092959850929598565b634e487b7160e01b600052601160045260246000fd5b80820180821115610751576107516143cc565b60005b838110156144105781810151838201526020016143f8565b50506000910152565b600081518084526144318160208601602086016143f5565b601f01601f19169290920160200192915050565b60a08152600061445860a0830188614419565b90506001600160a01b03808716602084015285604084015280851660608401525061ffff831660808301529695505050505050565b60006020828403121561449f57600080fd5b5051919050565b6080815260006144b96080830187614419565b6020830195909552506040810192909252606090910152919050565b81810381811115610751576107516143cc565b6000602082840312156144fa57600080fd5b8151612cd081613b83565b8082028115828204841417610751576107516143cc565b60008261453957634e487b7160e01b600052601260045260246000fd5b500490565b60a08152600061455160a0830188614419565b82810360208401526145638188614419565b6001600160a01b03968716604085015260608401959095525050921660809092019190915292915050565b8183823760009101908152919050565b60006145ac613c6c84613c36565b90508281528383830111156145c057600080fd5b612cd08360208301846143f5565b6000602082840312156145e057600080fd5b815167ffffffffffffffff8111156145f757600080fd5b8201601f8101841361460857600080fd5b6139c18482516020840161459e565b606081528360608201528385608083013760006080858301015260006080601f19601f870116830101905083602083015282604083015295945050505050565b8381526001600160a01b03831660208201526060604082015260006125b96060830184614419565b84815260006001600160a01b038086166020840152808516604084015250608060608301526127676080830184614419565b6000602082840312156146c357600080fd5b8151612cd081613d80565b6080815260006146e16080830187614419565b60208301959095525060408101929092521515606090910152919050565b60006040828403121561471157600080fd5b6040516040810181811067ffffffffffffffff8211171561473457614734613bc5565b604052825181526020928301519281019290925250919050565b60a08152600061476160a0830188614419565b866020840152856040840152828103606084015261477f8186614419565b91505082151560808301529695505050505050565b600081518084526020808501808196508360051b8101915082860160005b858110156147dc5782840389526147ca848351614419565b988501989350908401906001016147b2565b5091979650505050505050565b60006101208b83526001600160a01b03808c1660208501528a60408501528960608501528089166080850152508060a084015261482881840188614794565b95151560c0840152505061ffff9290921660e08301521515610100909101529695505050505050565b602081526000612cd06020830184614419565b8281526040602082015260006139c16040830184614794565b6000602080838503121561489057600080fd5b825167ffffffffffffffff808211156148a857600080fd5b818501915085601f8301126148bc57600080fd5b81516148ca613c6c82613cbc565b81815260059190911b830184019084810190888311156148e957600080fd5b8585015b83811015614936578051858111156149055760008081fd5b8601603f81018b136149175760008081fd5b6149288b898301516040840161459e565b8452509186019186016148ed565b5098975050505050505050565b600082516149558184602087016143f5565b7f2e63726561746f72000000000000000000000000000000000000000000000000920191825250600801919050565b60006001600160a01b0380871683528086166020840152808516604084015250608060608301526127676080830184614419565b634e487b7160e01b600052603260045260246000fd5b6000600182016149e0576149e06143cc565b5060010190565b600082516149f98184602087016143f5565b919091019291505056fea26469706673582212209ee5d903e43e48af6eeb48bd3e33eafaaed65e91963da16c30e9c369a760a71364736f6c63430008110033"
}