{
  "address": "0xBc9aCd5592ac75cd4F2A83e97C736A2b1E22b466",
  "abi": [
    {
      "inputs": [
        {
          "internalType": "contract AggregatorV3Interface",
          "name": "_usdOracle",
          "type": "address"
        },
        {
          "internalType": "contract AggregatorV3Interface",
          "name": "_cakeOracle",
          "type": "address"
        },
        {
          "internalType": "contract AggregatorV3Interface",
          "name": "_usd1Oracle",
          "type": "address"
        },
        {
          "internalType": "uint256[]",
          "name": "_rentPrices",
          "type": "uint256[]"
        },
        {
          "internalType": "uint256",
          "name": "_startPremium",
          "type": "uint256"
        },
        {
          "internalType": "uint256",
          "name": "totalDays",
          "type": "uint256"
        }
      ],
      "stateMutability": "nonpayable",
      "type": "constructor"
    },
    {
      "anonymous": false,
      "inputs": [
        {
          "indexed": false,
          "internalType": "uint256[]",
          "name": "prices",
          "type": "uint256[]"
        }
      ],
      "name": "RentPriceChanged",
      "type": "event"
    },
    {
      "inputs": [
        {
          "internalType": "uint256",
          "name": "startPremium",
          "type": "uint256"
        },
        {
          "internalType": "uint256",
          "name": "elapsed",
          "type": "uint256"
        }
      ],
      "name": "decayedPremium",
      "outputs": [
        {
          "internalType": "uint256",
          "name": "",
          "type": "uint256"
        }
      ],
      "stateMutability": "pure",
      "type": "function"
    },
    {
      "inputs": [
        {
          "internalType": "string",
          "name": "name",
          "type": "string"
        },
        {
          "internalType": "uint256",
          "name": "expires",
          "type": "uint256"
        },
        {
          "internalType": "uint256",
          "name": "duration",
          "type": "uint256"
        }
      ],
      "name": "premium",
      "outputs": [
        {
          "internalType": "uint256",
          "name": "",
          "type": "uint256"
        }
      ],
      "stateMutability": "view",
      "type": "function"
    },
    {
      "inputs": [
        {
          "internalType": "string",
          "name": "name",
          "type": "string"
        },
        {
          "internalType": "uint256",
          "name": "expires",
          "type": "uint256"
        },
        {
          "internalType": "uint256",
          "name": "duration",
          "type": "uint256"
        },
        {
          "internalType": "bool",
          "name": "lifetime",
          "type": "bool"
        }
      ],
      "name": "price",
      "outputs": [
        {
          "components": [
            {
              "internalType": "uint256",
              "name": "base",
              "type": "uint256"
            },
            {
              "internalType": "uint256",
              "name": "premium",
              "type": "uint256"
            }
          ],
          "internalType": "struct IPriceOracle.Price",
          "name": "",
          "type": "tuple"
        }
      ],
      "stateMutability": "view",
      "type": "function"
    },
    {
      "inputs": [],
      "name": "price1Letter",
      "outputs": [
        {
          "internalType": "uint256",
          "name": "",
          "type": "uint256"
        }
      ],
      "stateMutability": "view",
      "type": "function"
    },
    {
      "inputs": [],
      "name": "price2Letter",
      "outputs": [
        {
          "internalType": "uint256",
          "name": "",
          "type": "uint256"
        }
      ],
      "stateMutability": "view",
      "type": "function"
    },
    {
      "inputs": [],
      "name": "price3Letter",
      "outputs": [
        {
          "internalType": "uint256",
          "name": "",
          "type": "uint256"
        }
      ],
      "stateMutability": "view",
      "type": "function"
    },
    {
      "inputs": [],
      "name": "price4Letter",
      "outputs": [
        {
          "internalType": "uint256",
          "name": "",
          "type": "uint256"
        }
      ],
      "stateMutability": "view",
      "type": "function"
    },
    {
      "inputs": [],
      "name": "price5Letter",
      "outputs": [
        {
          "internalType": "uint256",
          "name": "",
          "type": "uint256"
        }
      ],
      "stateMutability": "view",
      "type": "function"
    },
    {
      "inputs": [
        {
          "internalType": "string",
          "name": "name",
          "type": "string"
        },
        {
          "internalType": "uint256",
          "name": "expires",
          "type": "uint256"
        },
        {
          "internalType": "uint256",
          "name": "duration",
          "type": "uint256"
        },
        {
          "internalType": "string",
          "name": "token",
          "type": "string"
        },
        {
          "internalType": "bool",
          "name": "lifetime",
          "type": "bool"
        }
      ],
      "name": "priceToken",
      "outputs": [
        {
          "components": [
            {
              "internalType": "uint256",
              "name": "base",
              "type": "uint256"
            },
            {
              "internalType": "uint256",
              "name": "premium",
              "type": "uint256"
            }
          ],
          "internalType": "struct IPriceOracle.Price",
          "name": "",
          "type": "tuple"
        }
      ],
      "stateMutability": "view",
      "type": "function"
    },
    {
      "inputs": [
        {
          "internalType": "bytes4",
          "name": "interfaceID",
          "type": "bytes4"
        }
      ],
      "name": "supportsInterface",
      "outputs": [
        {
          "internalType": "bool",
          "name": "",
          "type": "bool"
        }
      ],
      "stateMutability": "view",
      "type": "function"
    }
  ],
  "transactionHash": "0xa6c80e8c5df27b9fd66cafcf00c18f100f8d634e0b8ee0841c8dda3334d356db",
  "args": [
    "0x2514895c72f50D8bd4B4F9b1110F0D6bD2c97526",
    "0x81faeDDfeBc2F8Ac524327d70Cf913001732224C",
    "0xEca2605f0BCF2BA5966372C99837b1F182d3D620",
    [
      "0",
      "3170979198377",
      "1585489599188",
      "792744799594",
      "317097919838"
    ],
    "100000000000000000000000000",
    "21"
  ],
  "numDeployments": 1,
  "solcInputHash": "dcc6184d14b5e21d84340667ccb71894",
  "bytecode": "0x6101606040523480156200001257600080fd5b506040516200195e3803806200195e833981016040819052620000359162000190565b600080546001600160a01b0319166001600160a01b0388161781558351879185918591859185918591829190620000705762000070620002a6565b60200260200101516080818152505080600181518110620000955762000095620002a6565b602002602001015160a0818152505080600281518110620000ba57620000ba620002a6565b602002602001015160c0818152505080600381518110620000df57620000df620002a6565b602002602001015160e0818152505080600481518110620001045762000104620002a6565b60209081029190910101516101005250506101208290521c610140525050600280546001600160a01b039586166001600160a01b031991821617909155600180549690951695169490941790925550620002bc92505050565b80516001600160a01b03811681146200017557600080fd5b919050565b634e487b7160e01b600052604160045260246000fd5b60008060008060008060c08789031215620001aa57600080fd5b620001b5876200015d565b95506020620001c68189016200015d565b9550620001d6604089016200015d565b60608901519095506001600160401b0380821115620001f457600080fd5b818a0191508a601f8301126200020957600080fd5b8151818111156200021e576200021e6200017a565b8060051b604051601f19603f830116810181811085821117156200024657620002466200017a565b60405291825284820192508381018501918d8311156200026557600080fd5b938501935b8285101562000285578451845293850193928501926200026a565b8098505050505050506080870151915060a087015190509295509295509295565b634e487b7160e01b600052603260045260246000fd5b60805160a05160c05160e0516101005161012051610140516115b5620003a9600039600081816110ab01526110d50152600061108201526000818161012501528181610340015281816104ab01528181610713015261087e01526000818161020101528181610392015281816104e80152818161076501526108bb0152600081816101a0015281816103d201528181610525015281816107a501526108f80152600081816101da0152818161041d01528181610562015281816107f0015261093501526000818160f0015281816104680152818161058c0152818161083b015261095f01526115b56000f3fe608060405234801561001057600080fd5b50600436106100be5760003560e01c80638416a37411610076578063a34e35961161005b578063a34e3596146101c2578063cd5d2c74146101d5578063d820ed42146101fc57600080fd5b80638416a37414610188578063a200e1531461019b57600080fd5b806359b6b86c116100a757806359b6b86c1461012057806359e1777c146101475780638361401d1461015a57600080fd5b806301ffc9a7146100c35780632c0fd74c146100eb575b600080fd5b6100d66100d13660046111ef565b610223565b60405190151581526020015b60405180910390f35b6101127f000000000000000000000000000000000000000000000000000000000000000081565b6040519081526020016100e2565b6101127f000000000000000000000000000000000000000000000000000000000000000081565b610112610155366004611231565b610234565b61016d6101683660046112c7565b6102cf565b604080518251815260209283015192810192909252016100e2565b61016d6101963660046113c5565b6106a2565b6101127f000000000000000000000000000000000000000000000000000000000000000081565b6101126101d036600461142c565b6109f8565b6101127f000000000000000000000000000000000000000000000000000000000000000081565b6101127f000000000000000000000000000000000000000000000000000000000000000081565b600061022e82610a49565b92915050565b6000806201518061024d670de0b6b3a764000085611493565b61025791906114aa565b9050600061026d670de0b6b3a7640000836114aa565b905084811c6000610286670de0b6b3a764000084611493565b61029090856114cc565b90506000670de0b6b3a76400006102aa8362010000611493565b6102b491906114aa565b905060006102c28285610ae1565b9998505050505050505050565b6040805180820190915260008082526020820152600061032488888080601f016020809104026020016040519081016040528093929190818152602001838380828437600092019190915250610e0192505050565b90506000600582101580156103365750835b1561037b576103697f00000000000000000000000000000000000000000000000000000000000000006301e13380611493565b610374906004611493565b90506105b3565b8160041480156103885750835b156103bb576103697f00000000000000000000000000000000000000000000000000000000000000006301e13380611493565b8160031480156103c85750835b15610406576103fb7f00000000000000000000000000000000000000000000000000000000000000006301e13380611493565b610374906006611493565b8160021480156104135750835b15610451576104467f00000000000000000000000000000000000000000000000000000000000000006301e13380611493565b61037490600a611493565b81600114801561045e5750835b15610491576103747f00000000000000000000000000000000000000000000000000000000000000006301e13380611493565b600582101580156104a0575083155b156104cf57610374867f0000000000000000000000000000000000000000000000000000000000000000611493565b8160041480156104dd575083155b1561050c57610374867f0000000000000000000000000000000000000000000000000000000000000000611493565b81600314801561051a575083155b1561054957610374867f0000000000000000000000000000000000000000000000000000000000000000611493565b816002148015610557575083155b1561058657610374867f0000000000000000000000000000000000000000000000000000000000000000611493565b6105b0867f0000000000000000000000000000000000000000000000000000000000000000611493565b90505b60408051808201909152600481527f63616b65000000000000000000000000000000000000000000000000000000006020918201528551908601207fd638d242b45c8aba8055c7b1781a7b0ac9dabf4a46aaede0b3bc1daec8c68d630161068457604051806040016040528061062883610f90565b81526020016106786106738c8c8080601f0160208091040260200160405190810160405280939291908181526020018383808284376000920191909152508e92508d915061104c9050565b610f90565b81525092505050610698565b60405180604001604052806106288361110f565b9695505050505050565b604080518082019091526000808252602082015260006106f787878080601f016020809104026020016040519081016040528093929190818152602001838380828437600092019190915250610e0192505050565b90506000600582101580156107095750835b1561074e5761073c7f00000000000000000000000000000000000000000000000000000000000000006301e13380611493565b610747906004611493565b9050610986565b81600414801561075b5750835b1561078e5761073c7f00000000000000000000000000000000000000000000000000000000000000006301e13380611493565b81600314801561079b5750835b156107d9576107ce7f00000000000000000000000000000000000000000000000000000000000000006301e13380611493565b610747906006611493565b8160021480156107e65750835b15610824576108197f00000000000000000000000000000000000000000000000000000000000000006301e13380611493565b61074790600a611493565b8160011480156108315750835b15610864576107477f00000000000000000000000000000000000000000000000000000000000000006301e13380611493565b60058210158015610873575083155b156108a257610747857f0000000000000000000000000000000000000000000000000000000000000000611493565b8160041480156108b0575083155b156108df57610747857f0000000000000000000000000000000000000000000000000000000000000000611493565b8160031480156108ed575083155b1561091c57610747857f0000000000000000000000000000000000000000000000000000000000000000611493565b81600214801561092a575083155b1561095957610747857f0000000000000000000000000000000000000000000000000000000000000000611493565b610983857f0000000000000000000000000000000000000000000000000000000000000000611493565b90505b604051806040016040528061099a8361117f565b81526020016109ea6109e58b8b8080601f0160208091040260200160405190810160405280939291908181526020018383808284376000920191909152508d92508c915061104c9050565b61117f565b905298975050505050505050565b6000610a406109e586868080601f01602080910402602001604051908101604052809392919081815260200183838082843760009201919091525088925087915061104c9050565b95945050505050565b60007fffffffff0000000000000000000000000000000000000000000000000000000082167f01ffc9a700000000000000000000000000000000000000000000000000000000148061022e57507fffffffff0000000000000000000000000000000000000000000000000000000082167f8416a374000000000000000000000000000000000000000000000000000000001492915050565b60006001831615610b1457670de0b6b3a7640000610b07670de0ad151d09418084611493565b610b1191906114aa565b91505b6002831615610b4557670de0b6b3a7640000610b38670de0a3769959680084611493565b610b4291906114aa565b91505b6004831615610b7657670de0b6b3a7640000610b69670de09039a5fa510084611493565b610b7391906114aa565b91505b6008831615610ba757670de0b6b3a7640000610b9a670de069c00f3e120084611493565b610ba491906114aa565b91505b6010831615610bd857670de0b6b3a7640000610bcb670de01cce21c9440084611493565b610bd591906114aa565b91505b6020831615610c0957670de0b6b3a7640000610bfc670ddf82ef46ce100084611493565b610c0691906114aa565b91505b6040831615610c3a57670de0b6b3a7640000610c2d670dde4f458f8e8d8084611493565b610c3791906114aa565b91505b6080831615610c6b57670de0b6b3a7640000610c5e670ddbe84213d5f08084611493565b610c6891906114aa565b91505b610100831615610c9d57670de0b6b3a7640000610c90670dd71b7aa6df5b8084611493565b610c9a91906114aa565b91505b610200831615610ccf57670de0b6b3a7640000610cc2670dcd86e7f28cde0084611493565b610ccc91906114aa565b91505b610400831615610d0157670de0b6b3a7640000610cf4670dba71a3084ad68084611493565b610cfe91906114aa565b91505b610800831615610d3357670de0b6b3a7640000610d26670d94961b13dbde8084611493565b610d3091906114aa565b91505b611000831615610d6557670de0b6b3a7640000610d58670d4a171c35c9838084611493565b610d6291906114aa565b91505b612000831615610d9757670de0b6b3a7640000610d8a670cb9da519ccfb70084611493565b610d9491906114aa565b91505b614000831615610dc957670de0b6b3a7640000610dbc670bab76d59c18d68084611493565b610dc691906114aa565b91505b618000831615610dfb57670de0b6b3a7640000610dee6709d025defee4df8084611493565b610df891906114aa565b91505b50919050565b8051600090819081905b80821015610f87576000858381518110610e2757610e276114df565b01602001516001600160f81b03191690507f8000000000000000000000000000000000000000000000000000000000000000811015610e7257610e6b6001846114f5565b9250610f74565b7fe0000000000000000000000000000000000000000000000000000000000000006001600160f81b031982161015610eaf57610e6b6002846114f5565b7ff0000000000000000000000000000000000000000000000000000000000000006001600160f81b031982161015610eec57610e6b6003846114f5565b7ff8000000000000000000000000000000000000000000000000000000000000006001600160f81b031982161015610f2957610e6b6004846114f5565b7ffc000000000000000000000000000000000000000000000000000000000000006001600160f81b031982161015610f6657610e6b6005846114f5565b610f716006846114f5565b92505b5082610f7f81611508565b935050610e0b565b50909392505050565b600080600160009054906101000a900473ffffffffffffffffffffffffffffffffffffffff1673ffffffffffffffffffffffffffffffffffffffff1663feaf968c6040518163ffffffff1660e01b815260040160a060405180830381865afa158015611000573d6000803e3d6000fd5b505050506040513d601f19601f82011682018060405250810190611024919061153b565b50505091505080836305f5e10061103b9190611493565b61104591906114aa565b9392505050565b600061105b6276a700846114f5565b92504283111561106d57506000611045565b600061107984426114cc565b905060006110a77f000000000000000000000000000000000000000000000000000000000000000083610234565b90507f00000000000000000000000000000000000000000000000000000000000000008110611103576110fa7f0000000000000000000000000000000000000000000000000000000000000000826114cc565b92505050611045565b50600095945050505050565b600080600260009054906101000a900473ffffffffffffffffffffffffffffffffffffffff1673ffffffffffffffffffffffffffffffffffffffff1663feaf968c6040518163ffffffff1660e01b815260040160a060405180830381865afa158015611000573d6000803e3d6000fd5b60008054604080517ffeaf968c0000000000000000000000000000000000000000000000000000000081529051839273ffffffffffffffffffffffffffffffffffffffff169163feaf968c9160048083019260a09291908290030181865afa158015611000573d6000803e3d6000fd5b60006020828403121561120157600080fd5b81357fffffffff000000000000000000000000000000000000000000000000000000008116811461104557600080fd5b6000806040838503121561124457600080fd5b50508035926020909101359150565b60008083601f84011261126557600080fd5b50813567ffffffffffffffff81111561127d57600080fd5b60208301915083602082850101111561129557600080fd5b9250929050565b634e487b7160e01b600052604160045260246000fd5b803580151581146112c257600080fd5b919050565b60008060008060008060a087890312156112e057600080fd5b863567ffffffffffffffff808211156112f857600080fd5b6113048a838b01611253565b90985096506020890135955060408901359450606089013591508082111561132b57600080fd5b818901915089601f83011261133f57600080fd5b8135818111156113515761135161129c565b604051601f8201601f19908116603f011681019083821181831017156113795761137961129c565b816040528281528c602084870101111561139257600080fd5b8260208601602083013760006020848301015280965050505050506113b9608088016112b2565b90509295509295509295565b6000806000806000608086880312156113dd57600080fd5b853567ffffffffffffffff8111156113f457600080fd5b61140088828901611253565b9096509450506020860135925060408601359150611420606087016112b2565b90509295509295909350565b6000806000806060858703121561144257600080fd5b843567ffffffffffffffff81111561145957600080fd5b61146587828801611253565b90989097506020870135966040013595509350505050565b634e487b7160e01b600052601160045260246000fd5b808202811582820484141761022e5761022e61147d565b6000826114c757634e487b7160e01b600052601260045260246000fd5b500490565b8181038181111561022e5761022e61147d565b634e487b7160e01b600052603260045260246000fd5b8082018082111561022e5761022e61147d565b60006001820161151a5761151a61147d565b5060010190565b805169ffffffffffffffffffff811681146112c257600080fd5b600080600080600060a0868803121561155357600080fd5b61155c86611521565b94506020860151935060408601519250606086015191506114206080870161152156fea2646970667358221220c59b2b93d1c3efcc2b1294521ef120bb936737802dc500eb735c8e26d21176be64736f6c63430008110033",
  "devdoc": {
    "kind": "dev",
    "methods": {
      "decayedPremium(uint256,uint256)": {
        "details": "Returns the premium price at current time elapsed",
        "params": {
          "elapsed": "time past since expiry",
          "startPremium": "starting price"
        }
      },
      "premium(string,uint256,uint256)": {
        "details": "Returns the pricing premium in wei."
      },
      "price(string,uint256,uint256,bool)": {
        "details": "Returns the price to register or renew a name.",
        "params": {
          "duration": "How long the name is being registered or extended for, in seconds.",
          "expires": "When the name presently expires (0 if this is a new registration).",
          "name": "The name being registered or renewed."
        },
        "returns": {
          "_0": "base premium tuple of base price + premium price"
        }
      }
    },
    "version": 1
  },
  "userdoc": {
    "kind": "user",
    "methods": {},
    "version": 1
  },
  "storageLayout": {
    "storage": [
      {
        "astId": 6514,
        "contract": "contracts/ethregistrar/TokenPriceOracle.sol:TokenPriceOracle",
        "label": "usdOracle",
        "offset": 0,
        "slot": "0",
        "type": "t_contract(AggregatorV3Interface)45"
      },
      {
        "astId": 7185,
        "contract": "contracts/ethregistrar/TokenPriceOracle.sol:TokenPriceOracle",
        "label": "cakeOracle",
        "offset": 0,
        "slot": "1",
        "type": "t_contract(AggregatorV3Interface)45"
      },
      {
        "astId": 7188,
        "contract": "contracts/ethregistrar/TokenPriceOracle.sol:TokenPriceOracle",
        "label": "usd1Oracle",
        "offset": 0,
        "slot": "2",
        "type": "t_contract(AggregatorV3Interface)45"
      }
    ],
    "types": {
      "t_contract(AggregatorV3Interface)45": {
        "encoding": "inplace",
        "label": "contract AggregatorV3Interface",
        "numberOfBytes": "20"
      }
    }
  }
}